:100000000C944B310D94FD800D94D2800D94A780FB
:100010000D947C800D9451800D9426800D94FB7F6F
:100020000D94D07F0D94DF4B0D94DF4B0D94DF4B7F
:100030000C948B310D9428810C948B310C948B3162
:100040000C948B310D944D230C948B310C948B318B
:100050000C948B310D941D220C948B310D94867F62
:100060000C948B310C94BC770C94B2770C948B313C
:100070000C948B310C948B310C948B310C948B3110
:100080000C94905C0C948B310C948B310C948B31D0
:100090000C948B310C948B310C948B310C948B31F0
:1000A0000C948B310C948B310C94625C0C948B31DE
:1000B0000C948B310C948B310C948B310C948B31D0
:1000C0000C948B310C948B310C948B310C948B31C0
:1000D0000C948B310C948B310C948B310C948B31B0
:1000E0000C948B31084AD73B3BCE016E84BCBFFDDC
:1000F000C12F3D6C74319ABD56833DDA3D00C77FF8
:1001000011BED9E4BB4C3E916BAAAABE0000008090
:100110003F05A84CCDB2D44EB93836A9020C50B91F
:10012000918688083CA6AAAA2ABE000000803F0744
:10013000634236B79BD8A71A39685618AEBAAB5582
:100140008C1D3CB7CC5763BD6DEDFD753EF6177247
:1001500031BF000000803F08000000BE9224491219
:100160003EABAAAA2ABECDCCCC4C3E00000080BE3D
:10017000ABAAAAAA3E00000000BF000000803F001A
:1001800000000000084178D3BB4387D1133D190E0E
:100190003CC3BD4282AD2B3E68EC8276BED98FE176
:1001A000A93E4C80EFFFBE01C4FF7F3F000000006E
:1001B00000000D94B1170D94A2620D9421620D946C
:1001C00042130D9449150D9474620D9416060D9406
:1001D000060A0D941D0A0D94FE090D944B630D94AF
:1001E000DB170D9447620D9433620D942B620D94CE
:1001F000FF020D9425620D943D160D9456100D943A
:10020000BD090D9410620D947F9B0D947D110D948A
:10021000C5130D944B620D940C620D94B0160D94A1
:1002200022160D9406620D949F180D9439620D9458
:1002300026170D942F620D94A3620D94C8130D948C
:100240001B620D9488910D9414620D943D620D947F
:10025000642F0D9490090D9446620D94A1170D948E
:1002600075620D94BC060D94C4130D94DF030D94B8
:10027000CE160D949C010D940E170D948A910D9439
:1002800082110D9441620D9418620D944B100D94DF
:10029000FB0F4E414E494E495459494E46CDCCCCA8
:1002A0003D0AD7233C17B7D13877CC2B329595E64A
:1002B000241FB14F0A000020410000C84200401C2A
:1002C0004620BCBE4CCA1B0E5AAEC59D7400407A77
:1002D00010F35A00A0724E18090010A5D4E80000CF
:1002E000E87648170000E40B54020000CA9A3B006D
:1002F0000000E1F505000080969800000040420FE4
:10030000000000A08601000000102700000000E8A7
:1003100003000000006400000000000A000000006C
:10032000000100000000002C76D888DC674F08230D
:10033000DFC1DFAE59E1B1B796E5E3E453C63AE673
:1003400051997696E8E6C28426EB898C9B62ED4053
:100350007C6FFCEFBC9C9F40F2BAA56FA5F49005A2
:100360005A2AF75C936B6CF9676DC11BFCE0E40DD6
:1003700047FEF520E6B500D0ED902E0300943577CA
:10038000050080841E080000204E0A000000C80CF2
:10039000333333330F986E12831141EF8D2114895B
:1003A0003BE65516CFFEE6DB18D1844B381BF77CB5
:1003B0001D901DA4BBE424203284725E228100C9FA
:1003C000F124ECA1E53D2770012C0190012701B03B
:1003D000012201C0011D01F00118011002130130BA
:1003E000020E016002090190020401C002FF000038
:1003F00003FA004003F5008003F000D003EB002077
:1004000004E6007004E100E004DC004005D700C011
:1004100005D2004006CD00D006C8008007C30030DA
:1004200008BE00F008B900C009B400B00AAF00B0BF
:100430000BAA00D00CA500000EA000500F9B00C01E
:100440001096005012910000148C00C0158700B067
:10045000178200B0197D00D01B7800001E73004089
:10046000206E0090226900F024640040275F009015
:10047000295A00E02B5500102E500020304B001060
:10048000324600E033410090353C001037370070B1
:10049000383200A0392D00B03A2800A03B2300607C
:1004A0003C1E00103D1900903D1400103E0F0070DE
:1004B0003E0A00C03E0500003F0000403FFBFF80B9
:1004C0003FF6FFC03FF1FF24F404D9201BC40C5CAD
:1004D0000E9804C4095F0265077101F405F900FB79
:1004E00004B30048048700C10369005803550003A2
:1004F000034500BE023A008402310053022A00295B
:1005000002250004022000E4011C00C8011900AF0C
:10051000011700980114008401130071011000619B
:1005200001100051010E0043010D0036010B002B9C
:10053000010B0020010B00150109000C010900034B
:10054000010800FB000800F3000800EB000700E4CE
:10055000000600DE000600D8000600D2000600CC2F
:10056000000500C7000500C2000500BD000400B979
:10057000000400B5000400B1000400AD000400A9AF
:10058000000400A5000300A20003009F0004009BDC
:100590000003009800030095000200930003009000
:1005A0000003008D0002008B00030088000200861B
:1005B00000020084000300810002007F0002007D31
:1005C0000002007B00020079000200770001007643
:1005D0000002007400020072000100710002006F4E
:1005E0000002006D0001006C0002006A0001006959
:1005F0000002006700010066000100650001006460
:100600000002006200010061000100600001005F63
:100610000002005D0001005C0001005B0001005A67
:100620000001005900010058000100570001005668
:100630000001005500010054000100530000005368
:100640000001005200010051000100500001004F64
:100650000001004E0000004E0001004D0001004C62
:100660000001004B0000004B0001004A000100495E
:10067000000100480000004800010047000100465A
:100680000000004600010045000000450001004454
:10069000000100430000004300010042000000424E
:1006A0000001004100000041000100400001003F46
:1006B0000000003F0001003E0000003E0001003D40
:1006C0000000003D0001003C0000003C0000003C38
:1006D0000001003B0000003B0001003A0000003A2E
:1006E0000001003900000039000100380000003826
:1006F000000000380001003700000037000100361C
:100700000000003600000036000100350000003512
:100710000000003500010034000000340000003407
:1007200000010033000000330000003300010032FC
:1007300000000032000000320001003100000031F2
:1007400000000031000100300000003000000030E7
:100750000001002F0000002F0000002F0000002FDC
:100760000001002E0000002E0000002E0001002DD0
:100770000000002D0000002D0000002D0001002CC5
:100780000000002C0000002C0000002C0001002BB9
:100790000000002B0000002B0000002B0001002AAD
:1007A0000000002A0000002A0000002A00010029A1
:1007B0000000002900000029000000290000002995
:1007C0000001002800000028000000280000002888
:1007D000000000280001002700000027000000277B
:1007E000000000270000002700010026000000266E
:1007F0000000002600000026000000260001002561
:100800000000002500000025000000250000002554
:100810000000002500010024000000240000002446
:100820000000002400000024000100230000002339
:10083000000000230000002300000023000000232C
:10084000000000230001002200000022000000221E
:100850000000002200000022000000220001002110
:100860000000002100000021000000210000002104
:1008700000000021000000210001002000000020F5
:1008800000000020000000200000002000000020E8
:1008900000000020000000200001001F0000001FD9
:1008A0000000001F0000001F0000001F0000001FCC
:1008B0000000001F0001001E0000001E0000001EBE
:1008C0000000001E00000024F4D43050C38E20C26B
:1008D000A24017828B7011127A910D816CD90AA8EF
:1008E00061E108C7586607615143061E4B5D05C1AB
:1008F00045A7041A411104093D9803713931034099
:1009000036DB0265339102D4305402802E1D02631F
:100910002CEE01752AC501B028A001102781018F96
:100920002564012B244B01E0223401AC211F018DF1
:10093000200D01801FFC00841EED00971DDF00B814
:100940001CD200E61BC600201BBC00641AB200B219
:1009500019A8000A19A0006A189900D1179100403F
:10096000178B00B516840031167E00B31579003A56
:10097000157300C7146F0058146A00EE13660088E0
:1009800013630025135E00C7125B006C125700153D
:10099000125400C111510070114F0021114B00D6AB
:1009A0001049008D1047004610440002104200C05C
:1009B0000F4000800F3E00420F3C00060F3B00CB73
:1009C0000E3800930E37005C0E3500270E3400F30E
:1009D0000D3200C10D3100900D3000600D2E00323F
:1009E0000D2D00050D2C00D90C2B00AE0C29008517
:1009F0000C29005C0C2700350C27000E0C2600E8A3
:100A00000B2400C40B2400A00B23007D0B23005AF1
:100A10000B2100390B2100180B2000F80A1F00D908
:100A20000A1E00BB0A1E009D0A1D00800A1D0063ED
:100A30000A1C00470A1B002C0A1B00110A1A00F7A7
:100A4000091A00DD091900C4091900AB091900923F
:100A50000917007B091800630917004C09160036B6
:100A6000091600200916000A091500F5081500E00E
:100A7000081400CC081400B8081400A4081400904E
:100A80000813007D0812006B081300580812004676
:100A90000812003408110023081100120811000187
:100AA000081100F0071000E0071000D0071000C088
:100AB000071000B0070F00A107100091070E008378
:100AC000070F0074070F0065070E0057070E004957
:100AD000070E003B070D002E070E0020070D001328
:100AE000070D0006070D00F9060C00ED060D00E0ED
:100AF000060C00D4060C00C8060C00BC060C00B0A6
:100B0000060C00A4060B0099060C008D060B008253
:100B1000060B0077060B006C060B0061060A0057F7
:100B2000060B004C060A0042060A0038060A002E90
:100B3000060A0024060A001A060A00100609000721
:100B4000060A00FD050900F4050900EB050900E2AD
:100B5000050900D9050900D0050900C7050900BE2F
:100B6000050900B5050800AD050800A50509009CAC
:100B7000050800940508008C050800840508007C21
:100B8000050800740508006C050700650508005D90
:100B9000050700560508004E0507004705070040F9
:100BA00005080038050700310507002A050700235E
:100BB0000507001C050600160507000F05070008BD
:100BC00005060002050700FB040600F5040700EE19
:100BD000040600E8040600E2040700DB040600D572
:100BE000040600CF040600C9040600C3040600BDC5
:100BF000040600B7040600B1040500AC040600A614
:100C0000040600A00405009B04060095040500905E
:100C10000406008A04050085040500800406007AA5
:100C200004050075040500700405006B04050066EA
:100C3000040500610405005C04050057040500522A
:100C40000405004D04050048040500430405003E6A
:100C50000404003A04050035040500300404002CA7
:100C600004050027040400230405001E0404001AE0
:100C700004040016040500110404000D0404000916
:100C80000405000404040000040400FC030400F84C
:100C9000030400F4030400F0030400EC030400E880
:100CA000030400E4030400E0030400DC030400D8B0
:100CB000030400D4030400D0030400CC030400C8E0
:100CC000030300C5030300726F746174696F6E20C3
:100CD0006D61747269783A0A0024F404D9201BC447
:100CE0000C5C0E9804C4095F0265077101F405F9F4
:100CF00000FB04B30048048700C103690058035592
:100D00000003034500BE023A008402310053022A68
:100D1000002902250004022000E4011C00C801197A
:100D200000AF011700980114008401130071011035
:100D3000006101100051010E0043010D0036010B4E
:100D4000002B010B0020010B00150109000C01090B
:100D50000003010800FB000800F3000800EB000797
:100D600000E4000600DE000600D8000600D20006FF
:100D700000CC000500C7000500C2000500BD00044E
:100D800000B9000400B5000400B1000400AD000487
:100D900000A9000400A5000300A20003009F0004B6
:100DA000009B0003009800030095000200930003DD
:100DB00000900003008D0002008B000300880002F9
:100DC000008600020084000300810002007F000210
:100DD000007D0002007B0002007900020077000124
:100DE000007600020074000200720001007100022F
:100DF000006F0002006D0001006C0002006A00013B
:100E00000069000200670001006600010065000142
:100E10000064000200620001006100010060000146
:100E2000005F0002005D0001005C0001005B00014A
:100E3000005A00010059000100580001005700014C
:100E4000005600010055000100540001005300004D
:100E50000053000100520001005100010050000148
:100E6000004F0001004E0000004E0001004D000147
:100E7000004C0001004B0000004B0001004A000143
:100E8000004900010048000000480001004700013F
:100E9000004600000046000100450000004500013A
:100EA0000044000100430000004300010042000034
:100EB000004200010041000000410001004000012B
:100EC000003F0000003F0001003E0000003E000126
:100ED000003D0000003D0001003C0000003C00001F
:100EE000003C0001003B0000003B0001003A000014
:100EF000003A00010039000000390001003800000C
:100F00000038000000380001003700000037000101
:100F100000360000003600000036000100350000F9
:100F200000350000003500010034000000340000EE
:100F300000340001003300000033000000330001E2
:100F400000320000003200000032000100310000D9
:100F500000310000003100010030000000300000CE
:100F600000300001002F0000002F0000002F0000C3
:100F7000002F0001002E0000002E0000002E0001B6
:100F8000002D0000002D0000002D0000002D0001AC
:100F9000002C0000002C0000002C0000002C0001A0
:100FA000002B0000002B0000002B0000002B000194
:100FB000002A0000002A0000002A0000002A000188
:100FC000002900000029000000290000002900007D
:100FD000002900010028000000280000002800006F
:100FE0000028000000280001002700000027000062
:100FF0000027000000270000002700010026000055
:101000000026000000260000002600000026000147
:10101000002500000025000000250000002500003C
:10102000002500000025000100240000002400002D
:101030000024000000240000002400010023000020
:101040000023000000230000002300000023000014
:101050000023000000230001002200000022000005
:1010600000220000002200000022000000220001F7
:1010700000210000002100000021000000210000EC
:1010800000210000002100000021000100200000DC
:1010900000200000002000000020000000200000D0
:1010A000002000000020000000200001001F0000C0
:1010B000001F0000001F0000001F0000001F0000B4
:1010C000001F0000001F0001001E0000001E0000A5
:1010D000001E0000001E00000024F4D43050C38E17
:1010E00020C2A24017828B7011127A910D816CD9A7
:1010F0000AA861E108C7586607615143061E4B5DA7
:1011000005C145A7041A411104093D9803713931FD
:10111000034036DB0265339102D4305402802E1D29
:1011200002632CEE01752AC501B028A001102781A9
:10113000018F2564012B244B01E0223401AC211FD7
:10114000018D200D01801FFC00841EED00971DDF26
:1011500000B81CD200E61BC600201BBC00641AB2FB
:1011600000B219A8000A19A0006A189900D11791B5
:101170000040178B00B516840031167E00B3157938
:10118000003A157300C7146F0058146A00EE136616
:10119000008813630025135E00C7125B006C1257B2
:1011A0000015125400C111510070114F0021114B54
:1011B00000D61049008D104700461044000210422E
:1011C00000C00F4000800F3E00420F3C00060F3B66
:1011D00000CB0E3800930E37005C0E3500270E341E
:1011E00000F30D3200C10D3100900D3000600D2E66
:1011F00000320D2D00050D2C00D90C2B00AE0C2952
:1012000000850C29005C0C2700350C27000E0C26ED
:1012100000E80B2400C40B2400A00B23007D0B234B
:10122000005A0B2100390B2100180B2000F80A1F6F
:1012300000D90A1E00BB0A1E009D0A1D00800A1D5F
:1012400000630A1C00470A1B002C0A1B00110A1A23
:1012500000F7091A00DD091900C4091900AB0919C2
:1012600000920917007B091800630917004C091642
:101270000036091600200916000A091500F50815A0
:1012800000E0081400CC081400B8081400A40814E6
:1012900000900813007D0812006B08130058081214
:1012A000004608120034081100230811001208112A
:1012B0000001081100F0071000E0071000D007102F
:1012C00000C0071000B0070F00A107100091070E23
:1012D0000083070F0074070F0065070E0057070E05
:1012E0000049070E003B070D002E070E0020070DDA
:1012F0000013070D0006070D00F9060C00ED060DA2
:1013000000E0060C00D4060C00C8060C00BC060C5D
:1013100000B0060C00A4060B0099060C008D060B0D
:101320000082060B0077060B006C060B0061060AB4
:101330000057060B004C060A0042060A0038060A4F
:10134000002E060A0024060A001A060A00100609E2
:101350000007060A00FD050900F4050900EB050970
:1013600000E2050900D9050900D0050900C70509F3
:1013700000BE050900B5050800AD050800A5050972
:10138000009C050800940508008C050800840508E9
:10139000007C050800740508006C05070065050859
:1013A000005D050700560508004E050700470507C4
:1013B000004005080038050700310507002A050729
:1013C00000230507001C050600160507000F05078A
:1013D000000805060002050700FB040600F50407E7
:1013E00000EE040600E8040600E2040700DB040641
:1013F00000D5040600CF040600C9040600C3040695
:1014000000BD040600B7040600B1040500AC0406E4
:1014100000A6040600A00405009B04060095040530
:1014200000900406008A0405008504050080040677
:10143000007A04050075040500700405006B0405BE
:101440000066040500610405005C040500570405FE
:1014500000520405004D040500480405004304053E
:10146000003E0404003A040500350405003004047D
:10147000002C04050027040400230405001E0404B6
:10148000001A04040016040500110404000D0404ED
:1014900000090405000404040000040400FC030423
:1014A00000F8030400F4030400F0030400EC030458
:1014B00000E8030400E4030400E0030400DC030488
:1014C00000D8030400D4030400D0030400CC0304B8
:1014D00000C8030300C50303002028006D6D290028
:1014E0005A5F6D6F76655F636F6D700A00616C7334
:1014F0006F20656E61626C6564290A00206E6F74EE
:101500002064697361626C65642E20536861726542
:10151000642077697468002E0A00004732384F0A49
:101520004D343820503130004D3834004732395076
:1015300034525400473239503454004732394A301B
:101540000047323950335430004732395032425418
:1015500030004732380A4D31393049300A4D313088
:101560003949300A47323950310A4D31303453301D
:101570000A4D3134305330004732380A4D3139305A
:1015800049310A4D31303949310A47323950310A2F
:101590004D31303453300A4D3134305330004732FE
:1015A000380A4D31393049320A4D31303949320A21
:1015B00047323950310A4D31303453300A4D3134CD
:1015C000305330004732394E5031004732395031B4
:1015D00043004732394900473239543000473239E5
:1015E000543100473239532D3100473239493939A6
:1015F000390A4732395032425430004732394400B8
:101600004732394100473239570041786973200029
:10161000206D696E3A00206D61783A00464153545E
:1016200000534C4F570035190B00000C01000A0005
:101630000C01000C0B0000000C000A005A5F535410
:101640004F505F50494E005A5F535445505F5049C8
:101650004E005A5F4D494E5F50494E005A5F454E0D
:1016600041424C455F50494E005A5F4449525F50D9
:10167000494E00595F53544F505F50494E00595FD7
:10168000535445505F50494E00595F4D494E5F508D
:10169000494E00595F454E41424C455F50494E000E
:1016A000595F4449525F50494E00585F53544F5060
:1016B0005F50494E00585F535445505F50494E00AB
:1016C000585F4D494E5F50494E00585F454E41426C
:1016D0004C455F50494E00585F4449525F50494E57
:1016E00000535549434944455F50494E00534552C4
:1016F000564F335F50494E00534552564F325F505C
:10170000494E00534552564F315F50494E005345A4
:1017100052564F305F50494E005344535300534488
:101720005F4445544543545F50494E004D4F534626
:1017300045545F435F50494E004D4F534645545FFB
:10174000425F50494E004D4F534645545F415F50F4
:10175000494E0054454D505F305F43535F50494EF2
:10176000004C45445F50494E004C43445F50494E45
:10177000535F5253004C43445F50494E535F454EB4
:1017800041424C45004C43445F50494E535F4437FF
:10179000004C43445F50494E535F4436004C434431
:1017A0005F50494E535F4435004C43445F50494EAF
:1017B000535F4434004B494C4C5F50494E00484500
:1017C000415445525F4245445F50494E00484541AF
:1017D0005445525F305F50494E0046494C5F525568
:1017E0004E4F55545F50494E0046414E5F50494E52
:1017F0000045315F535445505F50494E0045315FBD
:10180000454E41424C455F50494E0045315F444989
:10181000525F50494E0045315F43535F50494E007F
:1018200045305F535445505F50494E0045305F4549
:101830004E41424C455F50494E0045305F4449524D
:101840005F50494E00444F474C43445F53434B0065
:10185000444F474C43445F4D4F53490042544E5F01
:10186000454E430042544E5F454E435F454E004255
:10187000544E5F454E320042544E5F454E31004259
:1018800045455045525F50494E004156525F5353B3
:101890005F50494E004156525F53434B5F50494E93
:1018A000004156525F4D4F53495F50494E004156DB
:1018B000525F4D49534F5F50494E0054454D505F64
:1018C0004245445F50494E0054454D505F315F5092
:1018D000494E0054454D505F305F50494E004649D7
:1018E0004C57494454485F50494E005458443000C6
:1018F0005258443000434F4D4D554E494341544991
:101900004F4E0044525952554E004552524F525379
:1019100000494E464F004543484F004572726F7272
:101920002077726974696E6720746F204545505244
:101930004F4D210A00363726033C3D380E2E303EEF
:10194000121A1C180A43090844000153544F5050FE
:1019500045442E20005072696E7465722073746F56
:10196000707065642064756520746F206572726F95
:1019700072732E2046697820746865206572726FD4
:101980007220616E6420757365204D393939207479
:101990006F20726573746172742E202854656D70A7
:1019A0006572617475726520697320726573657400
:1019B0002E205365742069742061667465722072EC
:1019C000657374617274696E67290A004E6F2043F3
:1019D0006865636B73756D2077697468206C696ED8
:1019E00065206E756D6265722C204C617374204C9D
:1019F000696E653A20004E6F20436865636B7375AE
:101A00006D2077697468206C696E65206E756D62F3
:101A100065722C204C617374204C696E653A20000D
:101A2000636865636B73756D206D69736D61746355
:101A3000682C204C617374204C696E653A20004C10
:101A4000696E65204E756D626572206973206E6FD8
:101A500074204C617374204C696E65204E756D6204
:101A600065722B312C204C617374204C696E653A81
:101A700020004D3131300053657269616C20737400
:101A800061747573206D69736D617463680A0053C6
:101A9000442072656164206572726F720A00486F3B
:101AA00074656E642049646C652054696D656F755A
:101AB0007400486F74656E642049646C65205469D5
:101AC0006D656F75740A004B494C4C2062757474D7
:101AD0006F6E2F70696E0A002121204B494C4C20FB
:101AE0006361757365642062792000746F6F206D87
:101AF00075636820696E6163746976652074696DC9
:101B000065202D2063757272656E7420636F6D6D34
:101B1000616E643A20002121204B494C4C206361C6
:101B2000757365642062792000627573793A20705C
:101B3000617573656420666F7220696E7075740AD2
:101B400000627573793A2070617573656420666F01
:101B50007220757365720A00627573793A2070722B
:101B60006F63657373696E670A004D656469612010
:101B700052656D6F766564004D6564696120496EDC
:101B8000736572746564004D363030002066696C90
:101B9000616D656E745F72756E6F75742000666935
:101BA0006C616D656E745F72756E6F757420540034
:101BB000506C6561736520526573657400505249BD
:101BC0004E5445522048414C5445440025533A2038
:101BD000255300706F7765726F6666004B494C4CF9
:101BE00045442E20005072696E7465722068616CE5
:101BF0007465642E206B696C6C28292063616C6CA1
:101C00006564210A006563686F3A004572726F72FD
:101C10003A00204A0020204D343231204900202053
:101C200047323920493939390A00556E6966696584
:101C30006420426564204C6576656C696E6700615E
:101C400063746976650A00696E00002053797374C5
:101C5000656D2076312E303120002020207C0A0056
:101C60004E414E0020202E20202000207C002066A7
:101C70006F7220004C43443A0A004353563A0A001C
:101C80003A0A0A000A42656420546F706F677261F5
:101C9000706879205265706F72740050726F62695B
:101CA0006E67204661696C65640A0050726F6269F4
:101CB0006E67204661696C656400205A3A200020F6
:101CC000593A200042656420583A20004732384C87
:101CD0003000446F6E652E0A003F496E76616C6974
:101CE000642073746F7261676520736C6F742E0A61
:101CF0003F557365203020746F20003F454550529A
:101D00004F4D2073746F72616765206E6F74206130
:101D10007661696C61626C652E0A00446F6E652E97
:101D20000A003F496E76616C69642073746F72615A
:101D3000676520736C6F742E0A3F557365203020E1
:101D4000746F20003F454550524F4D2073746F72A1
:101D5000616765206E6F7420617661696C61626C89
:101D6000652E0A004732392050322066696E697349
:101D70006865642E0A005859206F7574736964652C
:101D8000207072696E7461626C652072616469753D
:101D9000732E0A003F4572726F7220696E20427581
:101DA00073696E6573732043617264206D6561733E
:101DB0007572656D656E742E0A004D616E75616C8D
:101DC0006C792070726F62696E6720756E726561E2
:101DD000636861626C6520706F696E74732E0A00AF
:101DE000292E0A0A0050726F62696E672061726F55
:101DF000756E642028004D65736820696E76616C8D
:101E00006964617465642E2050726F62696E672028
:101E10006D6573682E0A004D657368207A65726F70
:101E200065642E0A0044656661756C742073746F76
:101E30007261676520736C6F7420302073656C6508
:101E4000637465642E0A004170706C79696E672056
:101E500074657374207061747465726E2E0A0A0062
:101E60003F496E76616C696420285129207465733E
:101E700074207061747465726E2E20283020746F27
:101E80002032290A0A0020696E76616C69646174E7
:101E900065642E0A0A004C6F636174696F6E73008B
:101EA000456E74697265204D657368005374616E88
:101EB0006461726420446576696174696F6E3A206A
:101EC000004D65616E204D657368204865696768DF
:101ED000743A200023206F662073616D706C657307
:101EE0003A20000A4D657368206F6E6C792070612E
:101EF000727469616C6C7920706F70756C61746557
:101F0000642E0A0A0050726F62696E6720506F6912
:101F10006E740025532025692F2569002E0A002F95
:101F20000050726F62696E67206D65736820706F14
:101F3000696E74200020616E642074616B6520619D
:101F4000206D6561737572656D656E742E0A006D26
:101F50006D20746869636B2E0A00427573696E6543
:101F600073732043617264206973200052656D6F42
:101F700076652026204D6561737572652042656423
:101F80000052656D6F7665207368696D00506C61F5
:101F90006365207368696D20756E646572206E6F6D
:101FA0007A7A6C65000A4D657368206F6E6C7920D3
:101FB0007061727469616C6C7920706F70756C619E
:101FC0007465642E0A004D65736820506F696E74E5
:101FD000204D656173757265642061743A20004D0F
:101FE000656173757265004D65617375726500504A
:101FF0006C616365205368696D2026204D656173AF
:1020000075726500506C616365205368696D2026A8
:10201000204D656173757265004D6F76696E67203E
:10202000746F206E657874004D657368204564692F
:1020300074696E672053746F7070656400446F6ECE
:10204000652045646974696E67204D6573680A0090
:10205000446F6E652045646974696E67204D6573D1
:10206000680046696E652054756E696E67204D651F
:1020700073680028582C5929206F7574736964653A
:10208000207072696E7461626C652072616469753A
:10209000732E0A004F6666736574206F7574206F27
:1020A0006620626F756E64732E20283020746F2056
:1020B00031306D6D290A0A00496E76616C696420C1
:1020C0006D617020747970652E0A0A003F284629D8
:1020D0006164652068656967687420666F72204274
:1020E0006564204C6576656C20436F72726563741D
:1020F000696F6E206E6F7420706C61757369626CAD
:10210000652E0A0A003F43616E277420616374697B
:102110007661746520616E642064656163746976BC
:10212000617465206174207468652073616D652039
:1021300074696D652E0A0A00426F74682058202663
:102140002059206C6F636174696F6E73206D7573B5
:1021500074206265207370656369666965642E0A20
:102160000A003F496E76616C696420677269642079
:1021700073697A6520284A292073706563696669E6
:1021800065642028322D39292E0A0A003F2850295B
:10219000686173652076616C756520696E76616C27
:1021A00069642028302D36292E0A0A003F28562936
:1021B0006572626F7365206C6576656C20696D7001
:1021C0006C61757369626C652028302D34292E0A84
:1021D0000A003F285229657065746974696F6E2022
:1021E000636F756E7420696E76616C696420283146
:1021F0002B292E0A0A00446F696E67204732390086
:10220000371632162D1628165D0A00626564207096
:102210006C616E65206E6F726D616C203D205B009D
:10222000436F756C64206E6F7420636F6D706C65A6
:102230007465204C53462100436F72726563746568
:10224000645F5A3D0025532025692F2569000A0A3D
:10225000002F0054696C74696E67206D6573682087
:10226000706F696E7420003F4572726F72207072D9
:102270006F62696E6720706F696E742E2041626FA5
:102280007274696E67206F7065726174696F6E2E0B
:102290000A00436F727265637465645F5A3D00257E
:1022A0005320332F330054696C74696E67206D6559
:1022B00073682028332F33290A00436F72726563D5
:1022C0007465645F5A3D00255320322F33005469F2
:1022D0006C74696E67206D6573682028322F33290E
:1022E0000A00436F727265637465645F5A3D0054FF
:1022F000696C74696E6720506F696E740025532095
:10230000312F330054696C74696E67206D65736892
:102310002028312F33290A00646F6E650A00496E48
:1023200073756666696369656E7420646174610AB9
:1023300000000020415D74F9415D745142461793DD
:10234000425D74BD4274D1E74246170943D1451E30
:10235000435D743343E9A2484374D15D4300007385
:1023600043000020418C2E0A42175D6C42D145A7E4
:1023700042175DD8422EBA0443D1451D4374D1356E
:1023800043175D4E43BAE866435D747F4300008C9B
:10239000434578747261706F6C6174696E67206D0B
:1023A0006573682E2E2E005072696E74696E6720F8
:1023B0004F626A656374002553202569002F2F61E1
:1023C0006374696F6E3A00486F74656E6420746F51
:1023D0006F20636F6C640A00206D696E757465739D
:1023E0000020616E642000207475726E730020629C
:1023F00079200020005475726E200047333520612B
:10240000626F727465642E0A0020280047333520FD
:102410006661696C656420617420706F696E7420F8
:10242000004732385A003F28532963726577207479
:102430006872656164206D75737420626520333045
:102440002C2033312C2034302C2034312C203530CA
:102450002C206F722035312E0A004F46460A004666
:10246000616465204865696768742000426564207E
:102470004C6576656C696E6720004661696C6564C1
:1024800020746F20656E61626C6520426564204C2B
:102490006576656C696E670A00496E76616C696481
:1024A000206D6573682E0A0076616C69640A537446
:1024B0006F7261676520736C6F743A2000696E00FB
:1024C0004D65736820697320003F55736520302087
:1024D000746F20003F496E76616C69642073746F7D
:1024E0007261676520736C6F742E0A003F4545501A
:1024F000524F4D2073746F72616765206E6F742048
:10250000617661696C61626C652E0A00446576696A
:102510006174696F6E0025533A2025730046696E19
:102520006973686564210A003A207A3A2000206FB6
:10253000662000476F696E6720746F3A2058004329
:10254000570A00206469723A0020616E676C653A30
:10255000005374617274207261646975733A004D3E
:10256000343820506F696E740025533A2025642F4B
:10257000256400506F736974696F6E696E672074AB
:1025800068652070726F62652E2E2E0A003F4C65C2
:102590006773206F66206D6F76656D656E74206958
:1025A0006D706C61757369626C652028302D3135F2
:1025B000292E0A003F2028582C5929206F75742095
:1025C0006F6620626F756E64732E0A0050726F62C0
:1025D00065206F7574206F6620626F756E6473007E
:1025E0003F53616D706C652073697A65206E6F74FE
:1025F00020706C61757369626C652028342D3530EC
:10260000292E0A004D3438205A2D50726F626520F1
:102610005265706561746162696C69747920546592
:1026200073740A003F2856296572626F7365206CC7
:102630006576656C20696D706C61757369626C6537
:102640002028302D34292E0A005374616E64617283
:102650006420446576696174696F6E3A2000205287
:10266000616E67653A2000204D61783A2000204D68
:10267000696E3A2000205369676D613A20004D650C
:10268000616E3A200020440020204D32303020532B
:1026900000202844697361626C6564293A004669C8
:1026A0006C616D656E742073657474696E67730018
:1026B00020204D3230312058004D61782041636335
:1026C000656C65726174696F6E2028756E697473CC
:1026D0002F7332290020204D3230332058004D61B5
:1026E00078206665656472617465732028756E690B
:1026F00074732F73290020520020204D3230342073
:102700005000416363656C65726174696F6E202867
:10271000756E6974732F7332292028503C7072696A
:102720006E742D616363656C3E20523C72657472F9
:102730006163742D616363656C3E20543C74726107
:1027400076656C2D616363656C3E2900204A00202C
:10275000540020530020204D323035204200416487
:1027600076616E6365642028423C6D696E5F7365B7
:10277000676D656E745F74696D655F75733E205338
:102780003C6D696E5F66656564726174653E205478
:102790003C6D696E5F74726176656C5F66656564D9
:1027A000726174653E204A3C6A756E635F6465764B
:1027B0003E290020440020490020204D33303120A4
:1027C0005000486F74656E642050494400204400F6
:1027D00020490020204D33303420500042656420D1
:1027E0005049440050574D3A20202534640050573A
:1027F0004D3A20202534640050574D3A202025348E
:10280000640050574D3A20202534640050574D3A0B
:1028100020202534640050574D3A20202534640090
:1028200050574D3A20202534640050574D3A20200F
:102830002534640050574D3A202025346400505709
:102840004D3A20202534640050574D3A202025343D
:10285000640050574D3A20202534640050574D3ABB
:1028600020202534640050574D3A20202534640040
:1028700050574D3A20202534640050574D3A2020BF
:10288000253464003A200020202020434F4D0020B2
:1028900020206E6F6E2D7374616E646172642050BF
:1028A000574D206D6F646500202020636F6D70614F
:1028B000726520696E7465727275707420656E61E0
:1028C000626C6564002020206F766572666C6F779D
:1028D00020696E7465727275707420656E61626CC9
:1028E0006564003A20002020202054494D534B00BD
:1028F000423A2000202020205443435200413A20F5
:102900000020202020544343520020202020435305
:102910003A20002020202057474D3A200050574DA4
:102920003A20202534640050574D3A202025346445
:102930000047004800000088008A008C00B300B403
:1029400000000098009A009C00A800AA00AC002893
:10295000012A012C012020202054494D45520044D9
:102960000045006E00800081006F00B000B1007073
:1029700000900091007100A000A1007200200121D0
:1029800001730020697320616C736F207469656442
:1029900020746F20746869732070696E0054494D0B
:1029A00045523143000A202E002020002020506F85
:1029B00072743A200020202000202020416E616C9B
:1029C0006F6720696E203D2025356C64003C756E74
:1029D000757365642F756E6B6E6F776E3E00202881
:1029E0004125326429202000253364200050494EBF
:1029F0003A20004F7574707574203D2000496E7048
:102A0000757420203D2000416E616C6F6720696EF7
:102A1000203D2025356C640070726F7465637465A9
:102A200064200020284125326429202000253364B9
:102A3000200050494E3A2000F0180001EB18010127
:102A4000DE183B00D3184300C8184500BB184400EB
:102A5000AE183201A1183301951834018A183501D6
:102A60007F18250177181F016F18210164181D01B7
:102A70005C18230150183301451834013A181C0121
:102A80002C18180120181A0116182C010B182201F5
:102A9000FD171E01F1172401E9170901DA170201D8
:102AA000CD170A01BE170801B5172901A91717018B
:102AB0009D17190191171B0185171D01751711012C
:102AC0006917100161170D015317420146170A01DA
:102AD000391707012C1708011E1731011917350185
:102AE0000E170B0103170601F8160501ED16040178
:102AF000E1160C01D7163701CA162601C0160301CC
:102B0000B5163601AA160301A0163D019316380129
:102B100089160E017E163C0173160E0169163001EE
:102B20005C163E015216120147162E013C16120188
:102B3000446F6E652E0A0050756C73696E672020B5
:102B40002000556E746F7563686564200066616C63
:102B50007365004641494C3A204E6F207472696794
:102B60006765722064657465637465640A00464134
:102B7000494C3A204E6F69736520646574656374CF
:102B80006564202D20706C656173652072652D72FF
:102B9000756E20746573740A0020646574656374CF
:102BA00065642E0A003D20424C546F7563682070A6
:102BB00072652056332E3120286F7220636F6D703E
:102BC000617469626C6529003D205A2053657276F4
:102BD0006F2050726F6265003D20424C546F7563E8
:102BE000682056332E310020282B2F2D20346D7372
:102BF000293A20003A2033306D73206F72206D6FB8
:102C000072650A002E2050756C73652077696474B4
:102C100068002A2A20506C656173652074726967A8
:102C20006765722070726F62652077697468696E7B
:102C300020333020736563202A2A0A004641494C1C
:102C40003A20424C544F55434820656E61626C6592
:102C500064202D205365742075702074686973207A
:102C600064657669636520617320612053657276BF
:102C70006F2050726F6265207769746820494E56E4
:102C8000455254494E472073657420746F20277451
:102C9000727565272E0A0020204445504C4F594537
:102CA000442073746174653A204C4F5720286C6F30
:102CB0006769632030290020204445504C4F594516
:102CC000442073746174653A204849474820286C51
:102CD0006F676963203129003D204D656368616E2F
:102CE0006963616C205377697463682064657465F7
:102CF000637465640A005741524E494E473A204971
:102D00004E56455254494E472073657474696E6738
:102D10002070726F6261626C79206261636B7761AF
:102D20007264732E0A002E204465706C6F79202621
:102D30002073746F7720342074696D65730A003DC9
:102D400020424C546F75636820436C6173736963F0
:102D500020312E322C20312E332C20536D61727491
:102D600020312E302C20322E302C20322E322C20AE
:102D7000332E302C20332E312064657465637465E6
:102D8000642E0A002E20436865636B20666F7220F4
:102D9000424C544F5543480A002E205A5F4D494E2D
:102DA0005F454E4453544F505F494E564552544927
:102DB0004E473A20002E2050726F6265205A5F4DB8
:102DC000494E5F50494E3A20002C2073746F772093
:102DD000616E676C653A202020002C206465706C61
:102DE0006F7920616E676C653A2000536572766F6B
:102DF0002070726F626520746573740A2E2075737B
:102E0000696E6720696E6465783A202000576174A6
:102E10006368696E672070696E730A006469730085
:102E2000656E0061626C65640A00656E6473746F40
:102E300070206D6F6E69746F7220007061757365BC
:102E4000640053656E64204D31303820746F2072F9
:102E50006573756D650A00496E73657274206669E5
:102E60006C616D656E7420616E642073656E6420A4
:102E70004D3130380A0053656E64204D31303820B2
:102E8000746F2068656174206E6F7A7A6C650A00D1
:102E9000496E736572742066696C616D656E74202D
:102EA000616E642073656E64204D3130380A0072A3
:102EB0006573756D656400203B0020550020204D32
:102EC000363033204C0046696C616D656E74206C41
:102ED0006F61642F756E6C6F61640020496E76615E
:102EE0006C69642065787472756465722000536C37
:102EF0006565702E2E2E005A2050726F626520502C
:102F0000617374204265640A005A2050726F6265D2
:102F100020506173742042656400205A3A200020DA
:102F2000593A200042656420583A20004D65736884
:102F300020706F696E74206F7574206F66207261E7
:102F40006E67650A00436C69636B20746F2052657D
:102F500073756D652E2E2E004E6F204D6F76652E8B
:102F600000456E642066696C65206C6973740A00A4
:102F7000426567696E2066696C65206C6973740AC6
:102F8000004E6F206D656469610A0070617573653C
:102F900000286E6F2066696C652900437572726542
:102FA0006E742066696C653A200053442070726923
:102FB0006E74696E67206279746520004E6F7420AC
:102FC0005344207072696E74696E670A002E0A009D
:102FD00044656C6574696F6E206661696C65642C0C
:102FE0002046696C653A200046696C652064656C12
:102FF000657465643A002569730025696D2025694B
:1030000073002569682025696D202569730025698D
:1030100064202569682025696D202569730025696C
:103020007920256964202569682025696D20256936
:1030300073005072696E742074696D653A20006F78
:103040006B006F666600161911190A190319F51835
:1030500044454255473A004D313133205300536FB8
:10306000766F6C2053563031204275676669782040
:103070004F46462E002F2F004D31343520533C69EA
:103080006E6465783E206F7574206F662072616E85
:1030900067652028302D31290A003F4A206F75745A
:1030A000206F662072616E67652028302E303120D7
:1030B000746F20302E33290A002058003B20002056
:1030C000204D61783A2000200020204D696E3A2082
:1030D00000203B200020204D323131205300465249
:1030E0003A0020466C6F773A20003A200020536562
:1030F00072766F2000206F7574206F662072616E8B
:1031000067650A00536572766F200050726F6265C2
:10311000204F6666736574205A0050726F62652096
:103120004F6666736574205A0064697300656E00AB
:1031300043290A0061626C656420286D696E207401
:10314000656D702000436F6C6420657874727564DF
:1031500065732061726520004F4646004F4E002087
:103160003B20486F73742068616E646C696E6720E1
:103170000046696C616D656E742072756E6F757452
:1031800020004D65736820706F696E74206F7574D0
:10319000206F662072616E67650A004D34323120FF
:1031A000696E636F727265637420706172616D65C0
:1031B0007465722075736167650A004F6666736592
:1031C0007473204170706C696564004572723A20B6
:1031D000546F6F206661722100546F6F20666172B8
:1031E0002066726F6D207265666572656E6365201C
:1031F000706F696E740A00454550524F4D204F4B19
:103200000A00290A0020746F20003F5A206F75744D
:10321000206F662072616E6765202800290A0020F1
:10322000746F20003F59206F7574206F66207261A3
:103230006E676520282D00290A0020746F20003F4A
:1032400058206F7574206F662072616E6765202844
:103250002D004D383400446F6E65207072696E74B5
:10326000696E672066696C650A004D3737004D331B
:103270003100496E76616C6964206578747275649A
:1032800065720A0020204D323036205800486F6D9C
:1032900065206F6666736574004361703A00434F42
:1032A0004E4649475F4558504F5254004D45415492
:1032B0005041434B00434F4F4C45525F54454D5096
:1032C00045524154555245004348414D4245525F95
:1032D00054454D5045524154555245004241425982
:1032E0005354455050494E470041524353004D4FAF
:1032F00054494F4E5F4D4F44455300544845524D3D
:10330000414C5F50524F54454354494F4E0045582D
:1033100054454E4445445F4D323000435553544F5D
:103320004D5F4649524D574152455F55504C4F41B4
:1033300044004C464E5F5752495445004C4F4E474F
:103340005F46494C454E414D45004155544F52450D
:10335000504F52545F53445F53544154555300539C
:10336000445F575249544500524550454154004D21
:10337000554C54495F564F4C554D450053444341BD
:1033800052440050524F4D50545F535550504F527D
:103390005400484F53545F414354494F4E5F434F8D
:1033A0004D4D414E445300454D455247454E4359BE
:1033B0005F50415253455200434153455F4C49478A
:1033C00048545F4252494748544E45535300544F66
:1033D00047474C455F4C494748545300534F465468
:1033E000574152455F504F574552004255494C4452
:1033F0005F50455243454E54004C4556454C494E4E
:10340000475F44415441005A5F50524F4245005279
:10341000554E4F5554004155544F4C4556454C0060
:103420005052494E545F4A4F420050524F47524506
:103430005353004155544F5245504F52545F5445D9
:103440004D50004155544F5245504F52545F504FCC
:103450005300564F4C554D45545249430045455035
:10346000524F4D0042494E4152595F46494C455FCB
:103470005452414E534645520053455249414C5FC8
:10348000584F4E5F584F4646004649524D5741529D
:10349000455F4E414D453A4D61726C696E206275D3
:1034A000676669782D322E302E7820284D6179207C
:1034B000203120323032322031393A32303A34330E
:1034C0002920534F555243455F434F44455F555262
:1034D0004C3A6769746875622E636F6D2F4D617227
:1034E0006C696E4669726D776172652F4D61726CA1
:1034F000696E2050524F544F434F4C5F56455253C4
:10350000494F4E3A312E30204D414348494E455F98
:10351000545950453A536F766F6C205356303120D2
:103520004275676669782045585452554445525F44
:10353000434F554E543A3120555549443A636564DA
:1035400065326132662D343161322D343734382D95
:10355000396231322D63353563363266333637663C
:10356000660A0047322F473320626164207061721F
:10357000616D65746572730A00203B0020204D3830
:1035800035312058005A2D50726F6265204F6666A3
:103590007365740043616E6E6F74206F70656E208A
:1035A0007375626469722000436F6F6C696E672E79
:1035B0002E2E0045312025530020573A00426564E5
:1035C00020436F6F6C696E672E2E2E00426564205B
:1035D00048656174696E672E2E2E002364656669E6
:1035E0006E652044454641554C545F006265640059
:1035F0004B6420004B6920004B7020002066696EF0
:103600006973686564212050757420746865206C46
:10361000617374204B702C204B6920616E64204BC9
:103620006420636F6E7374616E74732066726F6D65
:103630002062656C6F7720696E746F20436F6E66D1
:10364000696775726174696F6E2E680A005049442B
:10365000204175746F74756E6500206661696C65D4
:1036600064212074696D656F75740A0050494420A7
:103670004175746F74756E6500206661696C656470
:10368000212054656D706572617475726520746F68
:103690006F20686967680A00504944204175746F5B
:1036A00074756E6500504944204379636C657300FE
:1036B00025532025692F256900204B643A200020DE
:1036C0004B693A2000204B703A200020436C617314
:1036D00073696320504944200A00204E6F206F76A2
:1036E000657273686F6F740A002054753A20002069
:1036F0004B753A2000206D61783A2000206D696E8C
:103700003A200020643A200020626961733A200068
:1037100048656174696E672E2E2E00207374617285
:10372000740A00504944204175746F74756E6500C9
:10373000206661696C6564212054656D70657261F5
:103740007475726520746F6F20686967680A00502D
:103750004944204175746F74756E6500504944206A
:103760004175746F74756E6500206661696C65647F
:103770002120426164206865617465722069640A71
:1037800000504944204175746F74756E6500457230
:10379000723A207574663820666F6E74206E6F748E
:1037A00020696E697469616C697A65642E0045727E
:1037B000723A207574663820666F6E74206E6F746E
:1037C00020696E697469616C697A65642E0045725E
:1037D000723A207574663820666F6E74206E6F744E
:1037E00020696E697469616C697A65642E0042654E
:1037F0006400456E636C6F73757265002568753A79
:1038000025303268750025303268753A25303268C7
:1038100075002530326875272530326875002568B7
:1038200075642025303268753A253032687500207D
:1038300020202020202000202020200065727200FF
:103840001FE0201020102010102010202010201029
:1038500030300840048003001FE03FF03FF03FF0AD
:103860001FE01FE03FF03FF03FF00FC00780030074
:103870003FFFF038007030FC3020FC102078102022
:1038800030102C00D02E31D02F7BD02F7BD02E317A
:10389000D02C00D020301020781020FC1030FC30CC
:1038A0003800703FFFF03FFFF03800703186302362
:1038B00087102787902F87D02F03D02030102078B3
:1038C000102078102030102F03D02F87D02787901A
:1038D0002387103186303800703FFFF01FFFF81F3C
:1038E000FFF80410400208200208200410400820BD
:1038F00080104100104100082080041040000000AA
:103900001FFFF81FFFF8000C0F00FE07022503BB86
:10391000017FFE08FE08FE05080806000040F0C80A
:103920008888987810050808060000C0F8888888FC
:103930008888F80505050600012030F830200508C4
:10394000080600002070F820202020E00509090664
:1039500000FF2070A8A8B888887020070505070018
:1039600001D86C366CD80509090600FFF8A88888CC
:10397000888888A8F8050A0A0600FE205050505092
:1039800088A8A8887003030306000340A040FFFF37
:10399000FFFFFFFFFFFFFFFFFFFFFFFFFFFFFFFF37
:1039A000FFFFFFFF0000000605FF010707060200FA
:1039B00080808080800080030303060105A0A0A012
:1039C00005060606000050F85050F8500509090693
:1039D00000FF2070A8A07028A87020050707060027
:1039E00000C8C8102040989805070706000040A0AE
:1039F000A040A890680103030602058080800309A7
:103A0000090601FF204040808080404020030909D2
:103A10000601FF8040402020204040800507070627
:103A2000000020A8702070A82005050506000120D0
:103A300020F820200203030601FFC0408005010199
:103A4000060003F8020202060100C0C005070706CF
:103A50000000081010204040800507070600007095
:103A60008898A8C8887003070706010040C0404036
:103A70004040E0050707060000708808102040F865
:103A8000050707060000F8081030088870050707CA
:103A900006000010305090F81010050707060000CF
:103AA000F880F0080888700507070600003040809D
:103AB000F0888870050707060000F808101020201D
:103AC0002005070706000070888870888870050741
:103AD0000706000070888878081060020505060156
:103AE00000C0C000C0C00206060601FFC0C000C082
:103AF00040800305050601012040804020050303A6
:103B0000060002F800F80305050601018040204088
:103B10008005070706000070881020200020050798
:103B2000070600007088B8A8B8807005070706006F
:103B300000708888F8888888050707060000F04824
:103B400048704848F00507070600007088808080AC
:103B50008870050707060000F04848484848F00507
:103B60000707060000F88080F08080F80507070648
:103B70000000F88080F08080800507070600007054
:103B8000888080988870050707060000888888F874
:103B9000888888030707060100E04040404040E075
:103BA0000507070600003810101010906005070781
:103BB0000600008890A0C0A09088050707060000B6
:103BC000808080808080F805070706000088D8A8DC
:103BD000888888880507070600008888C8A898880C
:103BE00088050707060000708888888888700507A0
:103BF00007060000F08888F080808005070706002F
:103C00000070888888A89068050707060000F0887B
:103C100088F0A0908805070706000070888070086B
:103C20008870050707060000F820202020202005C6
:103C300007070600008888888888887005070706B7
:103C400000008888888850502005070706000088F3
:103C5000888888A8A8500507070600008888502093
:103C600050888805070706000088885020202020FB
:103C7000050707060000F80810204080F80309092E
:103C80000601FFE080808080808080E005070706D5
:103C90000000804040201010080309090601FFE0E1
:103CA00020202020202020E00503030600052050CE
:103CB000880501010600FEF80303030601058040A4
:103CC00020050505060000700878887805070706B6
:103CD00000008080F0888888F005050506000070E7
:103CE00080808870050707060000080878888888A3
:103CF000780505050600007088F080700507070646
:103D00000000304840E04040400507070600FE70D4
:103D10008888887808700507070600008080F0888A
:103D20008888880307070601004000C0404040E043
:103D30000409090601FE10003010101010906005F3
:103D4000070706000080808890E090880307070638
:103D50000100C04040404040E0050505060000D09D
:103D6000A8A8A8A8050505060000B0C88888880589
:103D7000050506000070888888700507070600FEA4
:103D8000F0888888F080800507070600FE7888881C
:103D900088780808050505060000B0C88080800501
:103DA000050506000078807008F00507070600008A
:103DB0002020F820202018050505060000888888A6
:103DC00098680505050600008888885020050505C7
:103DD0000600008888A8A850050505060000885040
:103DE0002050880507070600FE88888850204080FC
:103DF000050505060000F8102040F8030909060132
:103E0000FF2040404080404040200109090602FF59
:103E10008080808080808080800309090601FF8087
:103E2000404040204040408005030306000248A86F
:103E300090FF554E4C4F41442046494C414D454E14
:103E400054004C4F41442046494C414D454E54008E
:103E500046494C414D454E54204348414E4745004C
:103E60004261636B2D4C656674004261636B2D5239
:103E7000696768740046726F6E742D526967687462
:103E80000046726F6E742D4C656674005045544741
:103E90000041425300504C4100536F766F6C2053E9
:103EA00056303120427567666978205265616479C1
:103EB0002E005072696E74696E672E2E2E0063613B
:103EC0006E63656C005072696E742041626F72742B
:103ED0006564004D3235005072696E742050617512
:103EE0007365640050617573696E672E2E2E0072C3
:103EF0006573756D65004D323400454550524F4D28
:103F00002056657273696F6E204572726F7200453C
:103F10004550524F4D20496E646578204572726F4E
:103F20007200454550524F4D204352432045727216
:103F30006F72003F0049676E6F726500526573656E
:103F40007400496E697469616C697A6520454550F1
:103F5000524F4D0050726F6265205A204F66667353
:103F6000657400486F6D696E672058595A004C6F30
:103F70006164206D6D00556E6C6F6164206D6D0025
:103F800046696C2E204469612E004520696E206DC3
:103F90006D5E33004D333033205531204525692087
:103FA00053256900504944204175746F74756E65DE
:103FB000202A005049442D44202A005049442D49CC
:103FC000202A005049442D50202A00200820466114
:103FD0006374002008204D6178002008204D696E30
:103FE000004F6666004F6E004175746F74656D70AA
:103FF000004D696E2054726176656C2056656C00C8
:104000004D696E2056656C6F63697479004D6178F7
:1040100020452056656C004D6178205A2056656C0D
:10402000004D617820592056656C004D617820580C
:104030002056656C004D6178204520416363656CB6
:10404000004D6178205A20416363656C004D6178B2
:10405000205920416363656C004D617820582041F0
:104060006363656C0054726176656C2041636365BF
:104070006C005265747261637420416363656C0007
:10408000416363656C0050726F6265205A204F6611
:10409000667365740050726F62652059204F6666C2
:1040A0007365740050726F62652058204F666673A6
:1040B000657400452073746570732F6D6D005A2010
:1040C00053746570732F6D6D005920537465707350
:1040D0002F6D6D00582053746570732F6D6D004106
:1040E0006476616E6365642053657474696E67738A
:1040F000003F0043616E63656C00496E6974004D5A
:1041000034323800496E697469616C697A6520459A
:104110004550524F4D0046696C616D656E74005498
:10412000656D706572617475726500537465707346
:104130002F6D6D0050726F6265204F6666736574F7
:1041400073004A756E6374696F6E20446576004132
:104150006363656C65726174696F6E0056656C6F40
:10416000636974790053657420486F6D65204F66EC
:10417000667365747300436F6E6669677572617408
:10418000696F6E004C617374205A3A2000476F6F5C
:104190006420506F696E74733A200050726F6269C8
:1041A0006E6720506F696E740041646A7573742085
:1041B00062656420756E74696C2074686520707225
:1041C0006F62652074726967676572732E00536B46
:1041D000697000446F6E65004732394E00436F725C
:1041E0006E6572732077697468696E20746F6C6590
:1041F00072616E63652E20426564207472616D6D1C
:1042000065642E004261636B004C6576656C003F0F
:104210000043616E63656C204F626A656374004E93
:104220004F005945530043616E63656C204F626ACD
:10423000656374203D004D61696E0053572D4D6FCD
:1042400064650053746F77004465706C6F79005338
:10425000656C662D54657374005265736574004215
:104260006564004E6F7A7A6C650046616E2053700B
:1042700065656400436F6E66696775726174696F26
:104280006E00526573746F72652044656661756C6B
:104290007473004C6F61642053657474696E677346
:1042A0000053746F72652053657474696E67730090
:1042B00050726568656174202420436F6E66004FFC
:1042C0006666004F6E0052756E6F75742053656E92
:1042D000736F7200424C546F7563680050726F6266
:1042E00065205A204F666673657400416476616E7E
:1042F0006365642053657474696E6773004D61690A
:104300006E004D37303220542564004D3630302059
:10431000423020542564004D373032203B25640064
:104320004D37303120542564004368616E67652045
:1043300046696C616D656E74005072656865617484
:1043400020437573746F6D005072656865617420E9
:1043500024004261636B004D363030423000436FC1
:104360006E74696E7565004F6666004F6E0052751B
:104370006E6F75742053656E736F7200507572673F
:1043800065206D6F726500524553554D45204F5065
:1043900054494F4E533A005052494E5420504155C3
:1043A0005345440020204E6F7A7A6C653A200050C5
:1043B00061726B696E672E2E2E0000005761697462
:1043C00020666F720066696C616D656E742063684B
:1043D000616E676500746F20737461727400576159
:1043E000697420666F720066696C616D656E742019
:1043F000756E6C6F616400004E6F7A7A6C65206830
:10440000656174696E6700506C65617365207761E2
:1044100069742E2E2E0000507265737320627574BD
:10442000746F6E00746F2068656174206E6F7A7AA5
:104430006C650000496E736572742066696C616D0D
:10444000656E7400616E64207072657373206275AE
:1044500074746F6E00746F20636F6E74696E75652F
:10446000005761697420666F720066696C616D65E2
:104470006E74206C6F61640000507265737320422B
:104480007574746F6E00746F20726573756D65203E
:104490007072696E7400005761697420666F7220D3
:1044A0007072696E7400746F20726573756D652E1D
:1044B0002E2E00005761697420666F720066696C69
:1044C000616D656E7420707572676500003F004213
:1044D00061636B0053746F70003F004E4F0059458D
:1044E00053004E6F204D65646961005072696E74AF
:1044F0002066726F6D204D65646961004368616E6E
:104500006765204D65646961004D32310043686123
:104510006E67652046696C616D656E7400436F6EF1
:1045200066696775726174696F6E0054656D706558
:10453000726174757265004D6F74696F6E005265BB
:1045400073756D65205072696E740043616E6365AA
:104550006C204F626A6563740054756E6500537415
:104560006F70205072696E740050617573652050D1
:1045700072696E7400496E666F2053637265656E72
:10458000003F005374617274205072696E7400436E
:10459000616E63656C005072696E740043616E6E8B
:1045A0006F7420656E746572207375626469723A07
:1045B000200002202E2E004D61696E002100486F00
:1045C00074656E6420746F6F20636F6C6400426169
:1045D000636B0050726F63656564004D6F74696F43
:1045E0006E0044697361626C652053746570706518
:1045F0007273004D3834004D34382050726F62654C
:104600002054657374004732384F0A4D34382050B7
:10461000313000426564205472616D6D696E6700CF
:10462000556E696669656420426564204C657665EF
:104630006C696E67005472616D6D696E67205769B1
:104640007A617264004175746F20486F6D65004D2A
:1046500061696E005072656865617420242042654E
:10466000640050726568656174202420456E6400A2
:1046700054656D706572617475726500436F6F6C1F
:10468000646F776E0050726568656174202400461F
:10469000616E20537065656400426564004E6F7AF8
:1046A0007A6C65004D61696E004D65617375726568
:1046B000004C6173742076616C75652000426564FE
:1046C000205472616D6D696E6700446F6E65008184
:1046D0003E753E6A3E603E53656C656374204F7262
:1046E0006967696E004732384C300050726F6265FE
:1046F000205A204F666673657400466C6F770046DB
:10470000616E20537065656400426564004E6F7A87
:104710007A6C65005370656564004D61696E005A7E
:104720002056616C7565004732380A4D31393020AA
:104730005325690A4D313039205325690A473239EA
:10474000205031004265642054656D7000486F74DC
:10475000656E642054656D70002E256900473239FE
:104760005036432D0048656967687420416D6F7548
:104770006E740041646A757374204D6573682048D7
:1047800065696768740046696E652054756E6520BA
:10479000436C6F736573740047323950345400466C
:1047A000696E652054756E6520416C6C0047323926
:1047B00050345254004C6576656C204D657368002A
:1047C0005369646520506F696E7473004772696441
:1047D000204D657368204C6576656C696E670033A3
:1047E0002D506F696E74204C6576656C696E67003C
:1047F0004732394A3000473239503352432E256907
:10480000004D616E75616C2046696C6C2D696E009F
:10481000473239503242543000536D617274204631
:10482000696C6C2D696E0047323950335430004644
:10483000696C6C2D696E20416D6F756E74004D65ED
:10484000736820696E76616C6964617465642E0AB0
:1048500000953E913E8C3E496E666F2053637265B3
:10486000656E00496E76616C696461746520436CA5
:104870006F73657374004732394900496E76616C15
:10488000696461746520416C6C00436F6E74696E7D
:10489000756520426564204D657368004732395064
:1048A00031430046696C6C2D696E204D657368005C
:1048B0004275696C6420436F6C64204D65736800B9
:1048C0004732394E5031004275696C64204375732C
:1048D000746F6D204D657368004732380A4D313969
:1048E0003049320A4D31303949320A473239503174
:1048F0000A4D31303453300A4D3134305330004793
:1049000032380A4D31393049310A4D313039493167
:104910000A47323950310A4D31303453300A4D3163
:1049200034305330004275696C64204D65736820E3
:10493000282429004732380A4D31393049300A4D90
:1049400031303949300A47323950310A4D3130342B
:1049500053300A4D31343053300047323925632506
:10496000690A4D31313720004D6573682025692073
:104970004C6F61646564004D657368202569205340
:1049800061766564005361766520426564204D65FB
:104990007368004C6F616420426564204D657368E4
:1049A000004D656D6F727920536C6F74004E6F20EF
:1049B00053746F72616765004732395034582573FC
:1049C00059257352256900202D2D2D2D2D005A3A81
:1049D00000593A00473238004F6666205072696EBF
:1049E000746572204261636B757000473239532DD4
:1049F00031004F757470757420666F722043535682
:104A0000004732395431004F757470757420666FE9
:104A10007220486F7374004732395430004D65730B
:104A200068204C6576656C696E6700456469742022
:104A30004D657368004D616E75616C6C79204275CF
:104A4000696C64204D6573680047323949393939DA
:104A50000A4732395032425430004275696C642042
:104A60004D65736800556E696669656420426564CA
:104A7000204C6576656C696E67004F75747075744F
:104A80002055424C20496E666F0047323957005519
:104A9000424C20546F6F6C73004F757470757420A6
:104AA0004D657368204D6170004D657368205374C7
:104AB0006F72616765004D657368204564697400B5
:104AC000466164652048656967687400416374697C
:104AD000766174652055424C004732394100446587
:104AE00061637469766174652055424C00473239C0
:104AF00044004D6F74696F6E004732394A25690072
:104B0000486F6D696E67204661696C6564006F70FF
:104B1000656E00545249474745524544003A2000CB
:104B200066696C616D656E74007A5F6D696E00799F
:104B30005F6D696E00785F6D696E005265706F72AF
:104B400074696E6720656E6473746F70207374612E
:104B50007475730A0020746F6F206C6F6E67206528
:104B60007874727573696F6E2070726576656E7495
:104B700065640A0020636F6C6420657874727573D5
:104B8000696F6E2070726576656E7465640A0048A0
:104B90006F6D6520257325732573204669727374C4
:104BA00000000000000000000000000000576172DB
:104BB0006E696E673A20486F6D696E672042756D49
:104BC000702044697669736F72203C20310A0002BC
:104BD00002050080984300007F43000096430000D8
:104BE000A0400000A04000000040000000010000C4
:104BF000000100008000555555000000400033338F
:104C00003300AAAA2A004992240000002000C7719C
:104C10001C0099991900D1451700555515003BB155
:104C200013002449120011111100000010000F0F91
:104C30000F00E3380E0043790D00CCCC0C00C330DC
:104C40000C00E8A20B0064210B00AAAA0A00703D28
:104C50000A009DD80900427B090092240900DCD398
:104C60000800888808001042080000000800F0C111
:104C700007008787070075500700711C07003EEB8F
:104C80000600A1BC06006990060066660600703E3C
:104C900006006118060017F4050074D105005BB02A
:104CA0000500B2900500627205005555050078397F
:104CB0000500B81E0500050505004EEC040087D46C
:104CC0000400A1BD040090A7040049920400C17D26
:104CD0000400EE690400C7560400444404005C323A
:104CE00004000821040041100400000004003FF00B
:104CF0000300F8E0030026D20300C3C30300CCB5D1
:104D000003003AA803000A9B0300388E0300C08109
:104D100003009F750300D0690300505E03001D531C
:104D2000030034480300913D030033330300162988
:104D30000300381F030097150300300C0300030322
:104D400003000BFA020049F10200BAE802005CE03D
:104D500002002DD802002DD0020059C80200B0C0B8
:104D6000020031B90200DAB10200AAAA0200A0A32F
:104D70000200BC9C0200FA9502005C8F0200DF88F2
:104D8000020082820200457C020027760200277022
:104D90000200436A02007C640200D05E02003F59B8
:104DA0000200C8530200FFFDFCFAF8F6F4F2F0EE40
:104DB000ECEAE9E7E5E3E1E0DEDCDAD9D7D5D4D205
:104DC000D0CFCDCBCAC8C7C5C3C2C0BFBDBCBAB99E
:104DD000B7B6B4B3B2B0AFADACAAA9A8A6A5A4A209
:104DE000A1A09E9D9C9A99989795949392908F8E4E
:104DF0008D8B8A8988878684838281807F7E7D7B74
:104E00007A797877767574737271706F6E6D6C6B7A
:104E10006A696867666564636261605F5E5D5C5B6A
:104E20005A5958585756555453525150504F4E4D49
:104E30004C4B4A4A49484746464544434242414012
:104E40003F3E3E3D3C3B3B3A3938383736353534CA
:104E50003332323130302F2E2E2D2C2B2B2A292974
:104E600028272726252524232322212120201F1E11
:104E70001E1D1C1C1B1B1A191918181716161515A0
:104E800014131312121111100F0F0E0E0D0D0C0C26
:104E90000B0A0A09090808070706060505040403A2
:104EA00003020201000053544F505045442E20008D
:104EB0005072696E7465722073746F7070656420CF
:104EC00064756520746F206572726F72732E204650
:104ED000697820746865206572726F7220616E64F3
:104EE00020757365204D39393920746F20726573D0
:104EF000746172742E202854656D706572617475CA
:104F000072652069732072657365742E2053657411
:104F100020697420616674657220726573746172B1
:104F200074696E67290A00206572726F72202D20E5
:104F3000726573746172742077697468204D3939B1
:104F4000390A00424C546F75636800212120535484
:104F50004F502063616C6C6564206265636175739A
:104F600065206F6620000080984300007F430000AA
:104F700096430000000000000000000000005365A0
:104F80007474696E67732053746F72656400290AC4
:104F9000002062797465733B20637263200053655F
:104FA0007474696E67732053746F7265642028008F
:104FB000454550524F4D20496E697469616C697A5C
:104FC00065640A004D6573682073617665642069C5
:104FD0006E20736C6F7420003F556E61626C6520AB
:104FE000746F2073617665206D65736820646174E9
:104FF000612E0A0020736C6F743D00206D6573682C
:1050000065735F656E643D004532454E443D00204A
:105010006D65736820736C6F747320617661696C61
:1050200061626C652E0A003F496E76616C6964208E
:10503000736C6F742E0A004D657368206C6F616429
:1050400065642066726F6D20736C6F7420003F552D
:105050006E61626C6520746F206C6F6164206D6599
:10506000736820646174612E0A0048617264636F22
:105070006465642044656661756C7420536574745E
:10508000696E6773204C6F616465640020286D6DE4
:105090002900203B204C6576656C696E67200020F6
:1050A000204D343230205300556E696669656420A6
:1050B000426564204C6576656C696E670020460029
:1050C00020420020480020204D3134352053004D2F
:1050D0006174657269616C206865617475702070B7
:1050E0006172616D657465727300203B2053656E5B
:1050F000736F72200020204D3431322053004669F6
:105100006C616D656E742072756E6F757420736559
:105110006E736F7200206D65736865732E0A0A00E6
:10512000454550524F4D2063616E20686F6C64207E
:1051300000416374697665204D65736820536C6F18
:1051400074200020204D3134392043203B20556EFF
:1051500069747320696E2043656C736975730A0006
:1051600054656D706572617475726520556E6974F1
:1051700073002020473231203B004C696E6561721C
:1051800020556E697473003F4D65736820746F6FAE
:105190002062696720666F7220454550524F4D2E40
:1051A0000A00454550524F4D206461746173697A1D
:1051B00065206572726F722E0A0055424C2072652E
:1051C0007365740A00206C6F616465642066726F99
:1051D0006D2073746F726167652E0A004D65736888
:1051E0002000290A002062797465733B2063726392
:1051F00020002073746F7265642073657474696E27
:105200006773207265747269657665642028002072
:105210002863616C63756C6174656429210A0020E0
:10522000213D2000454550524F4D20435243206DB3
:1052300069736D61746368202D202873746F7265C3
:10524000642920002053697A653A2000496E64651C
:10525000783A200000009643000096430000A041E9
:105260000000C8410000A0420000A0420000C84366
:105270000080CF43F4010000F4010000640000004E
:10528000E8030000204D61726C696E3D5638362986
:105290000A00454550524F4D2076657273696F6E16
:1052A000206D69736D617463682028454550524FC5
:1052B0004D3D0024F4D43050C38E20C2A24017824A
:1052C0008B7011127A910D816CD90AA861E108C71F
:1052D000586607615143061E4B5D05C145A7041A78
:1052E000411104093D9803713931034036DB0265F1
:1052F000339102D4305402802E1D02632CEE0175CE
:105300002AC501B028A001102781018F2564012B37
:10531000244B01E0223401AC211F018D200D0180BE
:105320001FFC00841EED00971DDF00B81CD200E6B4
:105330001BC600201BBC00641AB200B219A8000AE8
:1053400019A0006A189900D117910040178B00B579
:1053500016840031167E00B31579003A157300C724
:10536000146F0058146A00EE13660088136300255A
:10537000135E00C7125B006C12570015125400C177
:1053800011510070114F0021114B00D61049008DB2
:105390001047004610440002104200C00F40008039
:1053A0000F3E00420F3C00060F3B00CB0E3800932F
:1053B0000E37005C0E3500270E3400F30D3200C1AD
:1053C0000D3100900D3000600D2E00320D2D0005C6
:1053D0000D2C00D90C2B00AE0C2900850C29005C8B
:1053E0000C2700350C27000E0C2600E80B2400C407
:1053F0000B2400A00B23007D0B23005A0B21003946
:105400000B2100180B2000F80A1F00D90A1E00BB50
:105410000A1E009D0A1D00800A1D00630A1C004729
:105420000A1B002C0A1B00110A1A00F7091A00DDDA
:10543000091900C4091900AB091900920917007B6A
:10544000091800630917004C0916003609160020D8
:105450000916000A091500F5081500E0081400CC2B
:10546000081400B8081400A4081400900813007D64
:105470000812006B08130058081200460812003486
:10548000081100230811001208110001081100F092
:10549000071000E0071000D0071000C0071000B090
:1054A000070F00A107100091070E0083070F00747B
:1054B000070F0065070E0057070E0049070E003B57
:1054C000070D002E070E0020070D0013070D000624
:1054D000070D00F9060C00ED060D00E0060C00D4E7
:1054E000060C00C8060C00BC060C00B0060C00A49C
:1054F000060B0099060C008D060B0082060B007748
:10550000060B006C060B0061060A0057060B004CE8
:10551000060A0042060A0038060A002E060A00247F
:10552000060A001A060A001006090007060A00FD0E
:10553000050900F4050900EB050900E2050900D999
:10554000050900D0050900C7050900BE050900B519
:10555000050800AD050800A50509009C0508009494
:105560000508008C050800840508007C0508007407
:105570000508006C050700650508005D0507005675
:105580000508004E050700470507004005080038DC
:10559000050700310507002A050700230507001C41
:1055A000050600160507000F05070008050600029E
:1055B000050700FB040600F5040700EE040600E8FA
:1055C000040600E2040700DB040600D5040600CF51
:1055D000040600C9040600C3040600BD040600B7A3
:1055E000040600B1040500AC040600A6040600A0F1
:1055F0000405009B04060095040500900406008A3B
:1056000004050085040500800406007A0405007581
:10561000040500700405006B0405006604050061C4
:105620000405005C04050057040500520405004D04
:1056300004050048040500430405003E0404003A44
:1056400004050035040500300404002C040500277F
:10565000040400230405001E0404001A04040016B8
:10566000040500110404000D0404000904050004ED
:1056700004040000040400FC030400F8030400F424
:10568000030400F0030400EC030400E8030400E456
:10569000030400E0030400DC030400D8030400D486
:1056A000030400D0030400CC030400C8030300C5B6
:1056B00003030024F404D9201BC40C5C0E9804C41A
:1056C000095F0265077101F405F900FB04B30048A6
:1056D000048700C10369005803550003034500BE59
:1056E000023A008402310053022A002902250004F4
:1056F000022000E4011C00C8011900AF0117009846
:1057000001140084011300710110006101100051A7
:10571000010E0043010D0036010B002B010B002090
:10572000010B00150109000C01090003010800FB31
:10573000000800F3000800EB000700E4000600DEAC
:10574000000600D8000600D2000600CC000500C705
:10575000000500C2000500BD000400B9000400B54A
:10576000000400B1000400AD000400A9000400A57D
:10577000000300A20003009F0004009B00030098A8
:105780000003009500020093000300900003008DC9
:105790000002008B000300880002008600020084E3
:1057A000000300810002007F0002007D0002007BF8
:1057B0000002007900020077000100760002007408
:1057C00000020072000100710002006F0002006D13
:1057D0000001006C0002006A00010069000200671D
:1057E0000001006600010065000100640002006223
:1057F00000010061000100600001005F0002005D27
:105800000001005C0001005B0001005A000100592A
:10581000000100580001005700010056000100552A
:105820000001005400010053000000530001005229
:1058300000010051000100500001004F0001004E26
:105840000000004E0001004D0001004C0001004B23
:105850000000004B0001004A00010049000100481F
:10586000000000480001004700010046000000461B
:105870000001004500000045000100440001004314
:10588000000000430001004200000042000100410E
:1058900000000041000100400001003F0000003F07
:1058A0000001003E0000003E0001003D0000003D00
:1058B0000001003C0000003C0000003C0001003BF7
:1058C0000000003B0001003A0000003A00010039EE
:1058D00000000039000100380000003800000038E6
:1058E00000010037000000370001003600000036DC
:1058F00000000036000100350000003500000035D2
:1059000000010034000000340000003400010033C6
:1059100000000033000000330001003200000032BC
:1059200000000032000100310000003100000031B1
:105930000001003000000030000000300001002FA6
:105940000000002F0000002F0000002F0001002E9B
:105950000000002E0000002E0001002D0000002D90
:105960000000002D0000002D0001002C0000002C84
:105970000000002C0000002C0001002B0000002B78
:105980000000002B0000002B0001002A0000002A6C
:105990000000002A0000002A000100290000002960
:1059A0000000002900000029000000290001002853
:1059B0000000002800000028000000280000002847
:1059C000000100270000002700000027000000273A
:1059D000000000270001002600000026000000262D
:1059E0000000002600000026000100250000002520
:1059F0000000002500000025000000250000002513
:105A00000001002400000024000000240000002405
:105A100000000024000100230000002300000023F8
:105A200000000023000000230000002300000023EA
:105A300000010022000000220000002200000022DD
:105A400000000022000000220001002100000021CF
:105A500000000021000000210000002100000021C2
:105A600000000021000100200000002000000020B4
:105A700000000020000000200000002000000020A6
:105A8000000000200001001F0000001F0000001F98
:105A90000000001F0000001F0000001F0000001F8A
:105AA0000001001E0000001E0000001E0000001E7D
:105AB000000000393000003325000087190000B0D5
:105AC0000F0000DB080000BD040000740200003F6E
:105AD00001000020436F756E7420583A00426564DF
