:100000000C94931C0C9435FA0C940AFA0C94DFF9B6
:100010000C94B4F90C9489F90C945EF90C9433F9AE
:100020000C9408F90C940FBA0C940FBA0C940FBAF4
:100030000C94D31C0C9460FA0C94D31C0C94D31C19
:100040000C94D31C0C94879B0C94D31C0C94D31C41
:100050000C94D31C0C94529A0C94D31C0C94BEF8A0
:100060000C94D31C0C94B4580C94AA580C94D31C24
:100070000C94D31C0C94D31C0C94D31C0C94D31C44
:100080000C94D31C0C94D31C0C94D31C0C94D31C34
:100090000C94D31C0C94D31C0C94D31C0C94D31C24
:1000A0000C94D31C0C94D31C0C94D31C0C94D31C14
:1000B0000C94D31C0C94D31C0C94D31C0C94D31C04
:1000C0000C94D31C0C94D31C0C94D31C0C94D31CF4
:1000D0000C94D31C0C94D31C0C94D31C0C94D31CE4
:1000E0000C94D31C084AD73B3BCE016E84BCBFFDA9
:1000F000C12F3D6C74319ABD56833DDA3D00C77FF8
:1001000011BED9E4BB4C3E916BAAAABE0000008090
:100110003F05A84CCDB2D44EB93836A9020C50B91F
:10012000918688083CA6AAAA2ABE000000803F004B
:100130000D94BA0A0D94D3134E414E494E49545969
:10014000494E46CDCCCC3D0AD7233C17B7D13877A2
:10015000CC2B329595E6241FB14F0A0000204100B8
:1001600000C84200401C4620BCBE4CCA1B0E5AAE02
:10017000C59D7400407A10F35A00A0724E18090011
:1001800010A5D4E80000E87648170000E40B5402FC
:100190000000CA9A3B000000E1F505000080969837
:1001A00000000040420F000000A086010000001087
:1001B0002700000000E803000000006400000000C9
:1001C000000A00000000000100000000002C76D8AA
:1001D00088DC674F0823DFC1DFAE59E1B1B796E590
:1001E000E3E453C63AE651997696E8E6C28426EBF4
:1001F000898C9B62ED407C6FFCEFBC9C9F40F2BA07
:10020000A56FA5F490055A2AF75C936B6CF9676D9E
:10021000C11BFCE0E40D47FEF520E6B500D0ED90F3
:100220002E0300943577050080841E080000204EC0
:100230000A000000C80C333333330F986E12831159
:1002400041EF8D2114893BE65516CFFEE6DB18D130
:10025000844B381BF77C1D901DA4BBE42420328402
:10026000725E228100C9F124ECA1E53D275A5F535B
:10027000544F505F50494E005A5F535445505F50A1
:10028000494E005A5F4D494E5F50494E005A5F45F6
:100290004E41424C455F50494E005A5F4449525FBF
:1002A00050494E00595F53544F505F50494E0059CA
:1002B0005F535445505F50494E00595F4D494E5F62
:1002C00050494E00595F454E41424C455F50494EA2
:1002D00000595F4449525F50494E00585F53544F94
:1002E000505F50494E00585F535445505F50494E3F
:1002F00000585F4D494E5F50494E00585F454E4192
:10030000424C455F50494E00585F4449525F504946
:100310004E00535549434944455F50494E005345AB
:1003200052564F335F50494E00534552564F325F3D
:1003300050494E00534552564F315F50494E00537D
:100340004552564F305F50494E005344535300536B
:10035000445F4445544543545F50494E004D4F530C
:100360004645545F435F50494E004D4F53464554F8
:100370005F425F50494E004D4F534645545F415FC9
:1003800050494E0054454D505F305F43535F5049D4
:100390004E004C45445F50494E004C43445F504929
:1003A0004E535F5253004C43445F50494E535F4598
:1003B0004E41424C45004C43445F50494E535F44CC
:1003C00037004C43445F50494E535F4436004C4322
:1003D000445F50494E535F4435004C43445F50499D
:1003E0004E535F4434004B494C4C5F50494E0048DB
:1003F00045415445525F4245445F50494E0048458F
:10040000415445525F305F50494E0046494C5F525F
:10041000554E4F55545F50494E0046414E5F50492E
:100420004E0045315F535445505F50494E004531B1
:100430005F454E41424C455F50494E0045315F4457
:1004400049525F50494E0045315F43535F50494E1A
:100450000045305F535445505F50494E0045305F72
:10046000454E41424C455F50494E0045305F44493E
:10047000525F50494E00444F474C43445F53434BF7
:1004800000444F474C43445F4D4F53490042544E44
:100490005F454E430042544E5F454E435F454E001C
:1004A00042544E5F454E320042544E5F454E31003D
:1004B0004245455045525F50494E004156525F53A8
:1004C000535F50494E004156525F53434B5F504972
:1004D0004E004156525F4D4F53495F50494E0041C7
:1004E00056525F4D49534F5F50494E0054454D5051
:1004F0005F4245445F50494E0054454D505F315F67
:1005000050494E0054454D505F305F50494E0046B3
:10051000494C57494454485F50494E005458443060
:10052000005258443000434F4D4D554E49434154BD
:10053000494F4E0044525952554E004552524F5267
:100540005300494E464F004543484F003637260377
:100550003C3D380E2E303E121A1C180A430908443E
:10056000000153544F505045442E20005072696E84
:100570007465722073746F70706564206475652093
:10058000746F206572726F72732E204669782074C2
:100590006865206572726F7220616E642075736584
:1005A000204D39393920746F20726573746172740B
:1005B0002E202854656D70657261747572652069AE
:1005C000732072657365742E2053657420697420DE
:1005D00061667465722072657374617274696E67A6
:1005E000290A004E6F20436865636B73756D207731
:1005F000697468206C696E65206E756D6265722C19
:10060000204C617374204C696E653A20004E6F2057
:10061000436865636B73756D2077697468206C69D6
:100620006E65206E756D6265722C204C617374204E
:100630004C696E653A2000636865636B73756D2065
:100640006D69736D617463682C204C617374204C08
:10065000696E653A20004C696E65204E756D626565
:1006600072206973206E6F74204C617374204C6922
:100670006E65204E756D6265722B312C204C617356
:1006800074204C696E653A20004D3131300053655D
:100690007269616C20737461747573206D69736D18
:1006A000617463680A005344207265616420657256
:1006B000726F720A00486F74656E642049646C65DD
:1006C0002054696D656F757400486F74656E6420A1
:1006D00049646C652054696D656F75740A004B49F7
:1006E0004C4C20627574746F6E2F70696E0A002115
:1006F00021204B494C4C20636175736564206279FD
:100700002000746F6F206D75636820696E6163747B
:100710006976652074696D65202D20637572726538
:100720006E7420636F6D6D616E643A20002121202C
:100730004B494C4C206361757365642062792000DD
:10074000627573793A2070617573656420666F72A3
:1007500020696E7075740A00627573793A20706151
:100760007573656420666F7220757365720A006226
:100770007573793A2070726F63657373696E670A77
:10078000004D656469612052656D6F766564004D4A
:100790006564696120496E736572746564004D36E5
:1007A0003030002066696C616D656E745F72756EC5
:1007B0006F7574200066696C616D656E745F72752B
:1007C0006E6F7574205400506C65617365205265BE
:1007D000736574005052494E5445522048414C5460
:1007E00045440025533A20255300706F7765726F9A
:1007F0006666004B494C4C45442E20005072696E91
:100800007465722068616C7465642E206B696C6C11
:1008100028292063616C6C6564210A006563686F38
:100820003A004572726F723A005072696E74696E66
:1008300067204F626A656374002553202569002F85
:100840002F616374696F6E3A00486F74656E64203F
:10085000746F6F20636F6C640A0020440020204D89
:10086000323030205300202844697361626C656423
:10087000293A0046696C616D656E74207365747405
:10088000696E67730020204D3230312058004D6171
:100890007820416363656C65726174696F6E2028AE
:1008A000756E6974732F7332290020204D323033F6
:1008B0002058004D617820666565647261746573C7
:1008C0002028756E6974732F732900205200202030
:1008D0004D323034205000416363656C6572617441
:1008E000696F6E2028756E6974732F733229202802
:1008F000503C7072696E742D616363656C3E20526A
:100900003C726574726163742D616363656C3E2033
:10091000543C74726176656C2D616363656C3E292D
:1009200000204A0020540020530020204D32303552
:10093000204200416476616E6365642028423C6D0C
:10094000696E5F7365676D656E745F74696D655F11
:1009500075733E20533C6D696E5F666565647261B8
:1009600074653E20543C6D696E5F74726176656C8F
:100970005F66656564726174653E204A3C6A756EA7
:10098000635F6465763E29002044002049002020F2
:100990004D333031205000486F74656E64205049EB
:1009A000440020440020490020204D3330342050A2
:1009B00000426564205049440050574D3A2020259C
:1009C00034640050574D3A20202534640050574D70
:1009D0003A20202534640050574D3A2020253464B5
:1009E0000050574D3A20202534640050574D3A208E
:1009F000202534640050574D3A202025346400509F
:100A0000574D3A20202534640050574D3A20202578
:100A100034640050574D3A20202534640050574D1F
:100A20003A20202534640050574D3A202025346464
:100A30000050574D3A20202534640050574D3A203D
:100A4000202534640050574D3A202025346400504E
:100A5000574D3A2020253464003A200020202020E1
:100A6000434F4D002020206E6F6E2D7374616E64B5
:100A70006172642050574D206D6F64650020202006
:100A8000636F6D7061726520696E746572727570E6
:100A90007420656E61626C6564002020206F76654D
:100AA00072666C6F7720696E7465727275707420EF
:100AB000656E61626C6564003A200020202020543D
:100AC000494D534B00423A200020202020544343FC
:100AD0005200413A2000202020205443435200205D
:100AE00020202043533A20002020202057474D3A11
:100AF000200050574D3A20202534640050574D3A7D
:100B000020202534640047004800000088008A0047
:100B10008C00B300B400000098009A009C00A8006C
:100B2000AA00AC0028012A012C01202020205449D1
:100B30004D455200440045006E00800081006F006A
:100B4000B000B1007000900091007100A000A10001
:100B5000720020012101730020697320616C736FA2
:100B6000207469656420746F2074686973207069EB
:100B70006E0054494D45523143000A202E0020207A
:100B8000002020506F72743A200020202000202086
:100B900020416E616C6F6720696E203D2025356CA9
:100BA00064003C756E757365642F756E6B6E6F7740
:100BB0006E3E002028412532642920200025336420
:100BC000200050494E3A20004F7574707574203DD6
:100BD0002000496E70757420203D2000416E616CCC
:100BE0006F6720696E203D2025356C640070726F40
:100BF00074656374656420002028412532642920CF
:100C00002000253364200050494E3A200021050081
:100C1000011C0501010F053B0004054300F90445D3
:100C200000EC044400DF043201D2043301C6043472
:100C300001BB043501B0042501A8041F01A0042153
:100C40000195041D018D04230181043301760434D0
:100C5000016B041C015D04180151041A0147042CA6
:100C6000013C0422012E041E01220424011A04095D
:100C7000010B040201FE030A01EF030801E6032948
:100C800001DA031701CE031901C2031B01B6031DCC
:100C900001A60311019A03100192030D018403427E
:100CA0000177030A016A0307015D0308014F03315D
:100CB000014A0335013F030B0134030601290305F3
:100CC000011E03040112030C0108033701FB022675
:100CD00001F1020301E6023601DB020301D1023D0C
:100CE00001C4023801BA020E01AF023C01A4020E97
:100CF000019A0230018D023E018302120178022E18
:100D0000016D021201446F6E652E0A0050756C73FE
:100D1000696E6720202000556E746F756368656486
:100D20002000534552564F206E6F74207365742017
:100D300075702E0A005761746368696E6720706968
:100D40006E730A0064697300656E0061626C6564AD
:100D50000A00656E6473746F70206D6F6E69746FD6
:100D600072200070617573656400496E73657274FA
:100D70002066696C616D656E7420616E64207365B8
:100D80006E64204D3130380A0053656E64204D3159
:100D9000303820746F2068656174206E6F7A7A6CC9
:100DA000650A00496E736572742066696C616D65D1
:100DB0006E7420616E642073656E64204D3130382E
:100DC0000A00726573756D656400203B0020550054
:100DD00020204D363033204C0046696C616D656EC5
:100DE00074206C6F61642F756E6C6F6164002049B4
:100DF0006E76616C696420657874727564657220C2
:100E00000047322F47332062616420706172616D48
:100E100065746572730A00536C6565702E2E2E0022
:100E20005A2050726F62652050617374204265646D
:100E30000A005A2050726F6265205061737420421C
:100E4000656400436C69636B20746F205265737531
:100E50006D652E2E2E004E6F204D6F76652E00454F
:100E60006E642066696C65206C6973740A00426563
:100E700067696E2066696C65206C6973740A004E40
:100E80006F206D656469610A007061757365002883
:100E90006E6F2066696C65290043757272656E74A9
:100EA0002066696C653A20005344207072696E7444
:100EB000696E67206279746520004E6F7420534418
:100EC000207072696E74696E670A002E0A004465AC
:100ED0006C6574696F6E206661696C65642C204670
:100EE000696C653A200046696C652064656C6574C0
:100EF00065643A0043616E6E6F74206F70656E209A
:100F000073756264697220002569730025696D201C
:100F1000256973002569682025696D20256973009E
:100F2000256964202569682025696D20256973007D
:100F300025697920256964202569682025696D2047
:100F4000256973005072696E742074696D653A206A
:100F5000006F6B006F666600470542053B05340570
:100F6000260544454255473A004D31313320530060
:100F7000536F766F6C205356303120427567666927
:100F800078204F46462E002F2F004D313435205308
:100F90003C696E6465783E206F7574206F662072C0
:100FA000616E67652028302D31290A003F4A206F85
:100FB0007574206F662072616E67652028302E3050
:100FC0003120746F20302E33290A002058003B2036
:100FD0000020204D61783A2000200020204D696ECD
:100FE0003A2000203B200020204D32313120530098
:100FF00046523A0020466C6F773A200064697300CD
:10100000656E0043290A0061626C656420286D6981
:101010006E2074656D702000436F6C642065787479
:101020007275646573206172652000203B20486FF3
:1010300073742068616E646C696E67200046696C29
:10104000616D656E742072756E6F757420004F66E9
:101050006673657473204170706C696564004572D5
:10106000723A20546F6F206661722100546F6F20B6
:101070006661722066726F6D207265666572656E5C
:10108000636520706F696E740A00454550524F4D7C
:10109000204F4B0A004D383400446F6E652070724B
:1010A000696E74696E672066696C650A004D373732
:1010B000004D333100496E76616C69642065787447
:1010C00072756465720A0020204D32303620580057
:1010D000486F6D65206F6666736574004361703A92
:1010E00000434F4E4649475F4558504F5254004DBC
:1010F0004541545041434B00434F4F4C45525F5480
:10110000454D5045524154555245004348414D428A
:1011100045525F54454D5045524154555245004249
:101120004142595354455050494E47004152435350
:10113000004D4F54494F4E5F4D4F44455300544866
:1011400045524D414C5F50524F54454354494F4EC8
:1011500000455854454E4445445F4D323000435598
:1011600053544F4D5F4649524D574152455F55507C
:101170004C4F4144004C464E5F5752495445004C39
:101180004F4E475F46494C454E414D4500415554F1
:101190004F5245504F52545F53445F53544154553E
:1011A000530053445F5752495445005245504541FE
:1011B00054004D554C54495F564F4C554D450053C6
:1011C00044434152440050524F4D50545F53555088
:1011D000504F525400484F53545F414354494F4E6F
:1011E0005F434F4D4D414E445300454D4552474599
:1011F0004E43595F50415253455200434153455F5E
:101200004C494748545F4252494748544E4553530E
:1012100000544F47474C455F4C494748545300538F
:101220004F4654574152455F504F57455200425523
:10123000494C445F50455243454E54004C45564539
:101240004C494E475F44415441005A5F50524F420F
:10125000450052554E4F5554004155544F4C45563C
:10126000454C005052494E545F4A4F420050524F35
:101270004752455353004155544F5245504F5254D5
:101280005F54454D50004155544F5245504F5254B4
:101290005F504F5300564F4C554D455452494300F3
:1012A000454550524F4D0042494E4152595F4649C3
:1012B0004C455F5452414E534645520053455249A6
:1012C000414C5F584F4E5F584F4646004649524D7D
:1012D000574152455F4E414D453A4D61726C696EC2
:1012E000206275676669782D322E302E7820284D61
:1012F000617920203120323032322031393A333195
:101300003A35302920534F555243455F434F4445AA
:101310005F55524C3A6769746875622E636F6D2F22
:101320004D61726C696E4669726D776172652F4DA1
:1013300061726C696E2050524F544F434F4C5F5650
:10134000455253494F4E3A312E30204D4143484982
:101350004E455F545950453A536F766F6C20535643
:10136000303120427567666978204558545255449B
:1013700045525F434F554E543A3120555549443AF2
:1013800063656465326132662D343161322D3437E4
:1013900034382D396231322D633535633632663358
:1013A000363766660A00436F6F6C696E672E2E2EA5
:1013B0000045312025530020573A00426564204300
:1013C0006F6F6C696E672E2E2E0042656420486533
:1013D0006174696E672E2E2E0023646566696E65E2
:1013E0002044454641554C545F00626564004B649F
:1013F00020004B6920004B7020002066696E6973E5
:10140000686564212050757420746865206C617370
:1014100074204B702C204B6920616E64204B64203B
:10142000636F6E7374616E74732066726F6D206289
:10143000656C6F7720696E746F20436F6E666967A5
:1014400075726174696F6E2E680A005049442041BC
:1014500075746F74756E6500206661696C656421D2
:101460002074696D656F75740A0050494420417598
:10147000746F74756E6500206661696C6564212007
:1014800054656D706572617475726520746F6F203C
:10149000686967680A00504944204175746F747523
:1014A0006E6500504944204379636C657300255391
:1014B0002025692F256900204B643A2000204B69C4
:1014C0003A2000204B703A200020436C617373690E
:1014D0006320504944200A00204E6F206F766572C9
:1014E00073686F6F740A002054753A2000204B75A2
:1014F0003A2000206D61783A2000206D696E3A2014
:101500000020643A200020626961733A2000486537
:101510006174696E672E2E2E002073746172740AD6
:1015200000504944204175746F74756E65002066E3
:1015300061696C6564212054656D706572617475B4
:10154000726520746F6F20686967680A00504944AB
:10155000204175746F74756E650050494420417563
:10156000746F74756E6500206661696C6564212016
:10157000426164206865617465722069640A005084
:101580004944204175746F74756E65004572723AF6
:10159000207574663820666F6E74206E6F742069D3
:1015A0006E697469616C697A65642E004572723A7D
:1015B000207574663820666F6E74206E6F742069B3
:1015C0006E697469616C697A65642E004572723A5D
:1015D000207574663820666F6E74206E6F74206993
:1015E0006E697469616C697A65642E004265640095
:1015F000456E636C6F73757265002568753A2530AA
:101600003268750025303268753A253032687500C9
:101610002530326875272530326875002568756475
:101620002025303268753A25303268750020202038
:1016300020202020002020202000657272001FE062
:1016400020102010201010201020201020103030EA
:101650000840048003001FE03FF03FF03FF01FE030
:101660001FE03FF03FF03FF00FC0078003003FFF57
:10167000F038007030FC3020FC1020781020301042
:101680002C00D02E31D02F7BD02F7BD02E31D02CE0
:1016900000D020301020781020FC1030FC303800B2
:1016A000703FFFF03FFFF038007031863023871025
:1016B0002787902F87D02F03D0203010207810203C
:1016C00078102030102F03D02F87D02787902387C2
:1016D000103186303800703FFFF01FFFF81FFFF811
:1016E0000410400208200208200410400820801046
:1016F00041001041000820800410400000001FFF3E
:10170000F81FFFF863616E63656C005072696E7458
:101710002041626F72746564004D3235005061750E
:1017200073696E672E2E2E00726573756D65004DA0
:10173000323400454550524F4D2056657273696FE3
:101740006E204572726F7200454550524F4D2049D0
:101750006E646578204572726F7200454550524F35
:101760004D20435243204572726F72003F0049671B
:101770006E6F726500526573657400496E697469B5
:10178000616C697A6520454550524F4D004C6F6140
:1017900064206D6D00556E6C6F6164206D6D004648
:1017A000696C2E204469612E004520696E206D6DA4
:1017B0005E33004D333033205531204525692053A9
:1017C000256900504944204175746F74756E652019
:1017D0002A005049442D44202A005049442D4920D4
:1017E0002A005049442D50202A00200820466163D9
:1017F00074002008204D6178002008204D696E009B
:101800004F6666004F6E004175746F74656D7000B1
:101810004D696E2054726176656C2056656C004D82
:10182000696E2056656C6F63697479004D6178202C
:10183000452056656C004D6178205A2056656C0035
:101840004D617820592056656C004D6178205820F4
:1018500056656C004D6178204520416363656C00DE
:101860004D6178205A20416363656C004D6178209A
:101870005920416363656C004D61782058204163B5
:1018800063656C0054726176656C20416363656CBE
:10189000005265747261637420416363656C00413A
:1018A0006363656C00452073746570732F6D6D0004
:1018B0005A2053746570732F6D6D005920537465F1
:1018C00070732F6D6D00582053746570732F6D6D9C
:1018D00000416476616E6365642053657474696E5B
:1018E0006773003F0043616E63656C00496E697405
:1018F000004D34323800496E697469616C697A65EB
:1019000020454550524F4D0046696C616D656E74BF
:101910000054656D7065726174757265005374650D
:1019200070732F6D6D004A756E6374696F6E20441D
:10193000657600416363656C65726174696F6E0002
:1019400056656C6F636974790053657420486F6DD8
:1019500065204F66667365747300436F6E666967D2
:1019600075726174696F6E003F004E657874204334
:101970006F726E657200446F6E65004E657874001C
:10198000000C0F00FE07022503BB017FFE08FE08C6
:10199000FE05080806000040F0C888889878100501
:1019A0000808060000C0F88888888888F8050505BA
:1019B0000600012030F830200508080600002070DD
:1019C000F820202020E00509090600FF2070A8A8C3
:1019D000B888887020070505070001D86C366CD8D8
:1019E0000509090600FFF8A88888888888A8F805EE
:1019F0000A0A0600FE205050505088A8A88870039C
:101A0000030306000340A040FFFFFFFFFFFFFFFFAF
:101A1000FFFFFFFFFFFFFFFFFFFFFFFFFFFF0000D4
:101A2000000605FF01070706020080808080800015
:101A300080030303060105A0A0A00506060600001A
:101A400050F85050F8500509090600FF2070A8A072
:101A50007028A87020050707060000C8C81020409D
:101A6000989805070706000040A0A040A8906801CC
:101A700003030602058080800309090601FF204058
:101A8000408080804040200309090601FF804040DB
:101A900020202040408005070706000020A8702075
:101AA00070A8200505050600012020F8202002036B
:101AB000030601FFC04080050101060003F8020291
:101AC00002060100C0C0050707060000081010202C
:101AD000404080050707060000708898A8C88870F5
:101AE00003070706010040C040404040E0050707EB
:101AF000060000708808102040F80507070600005F
:101B0000F8081030088870050707060000103050EC
:101B100090F81010050707060000F880F008088804
:101B200070050707060000304080F08888700507C0
:101B300007060000F80810102020200507070600FF
:101B40000070888870888870050707060000708814
:101B50008878081060020505060100C0C000C0C0FA
:101B60000206060601FFC0C000C04080030505064E
:101B700001012040804020050303060002F800F820
:101B80000305050601018040204080050707060087
:101B900000708810202000200507070600007088CC
:101BA000B8A8B88070050707060000708888F88814
:101BB0008888050707060000F04848704848F00587
:101BC0000707060000708880808088700507070678
:101BD0000000F04848484848F0050707060000F8AC
:101BE0008080F08080F8050707060000F88080F00C
:101BF00080808005070706000070888080988870C4
:101C0000050707060000888888F888888803070782
:101C1000060100E04040404040E0050707060000A4
:101C2000381010101090600507070600008890A07B
:101C3000C0A0908805070706000080808080808013
:101C4000F805070706000088D8A88888888805074F
:101C5000070600008888C8A8988888050707060036
:101C60000070888888888870050707060000F0885B
:101C700088F080808005070706000070888888A8A3
:101C80009068050707060000F08888F0A090880596
:101C9000070706000070888070088870050707062F
:101CA0000000F820202020202005070706000088DB
:101CB00088888888887005070706000088888888D3
:101CC00050502005070706000088888888A8A8507B
:101CD00005070706000088885020508888050707F8
:101CE00006000088885020202020050707060000F5
:101CF000F80810204080F80309090601FFE0808001
:101D00008080808080E0050707060000804040203A
:101D10001010080309090601FFE0202020202020E0
:101D200020E0050303060005205088050101060098
:101D3000FEF80303030601058040200505050600A3
:101D40000070087888780507070600008080F08812
:101D50008888F005050506000070808088700507FA
:101D600007060000080878888888780505050600B9
:101D7000007088F08070050707060000304840E0DA
:101D80004040400507070600FE7088888878087084
:101D90000507070600008080F08888888803070709
:101DA0000601004000C0404040E00409090601FE71
:101DB000100030101010109060050707060000801A
:101DC000808890E09088030707060100C0404040EB
:101DD0004040E0050505060000D0A8A8A8A8050514
:101DE00005060000B0C88888880505050600007053
:101DF000888888700507070600FEF0888888F080CC
:101E0000800507070600FE78888888780808050599
:101E100005060000B0C88080800505050600007832
:101E2000807008F00507070600002020F820202019
:101E300018050505060000888888986805050506C8
:101E4000000088888850200505050600008888A8BD
:101E5000A850050505060000885020508805070792
:101E60000600FE8888885020408005050506000091
:101E7000F8102040F80309090601FF204040408087
:101E8000404040200109090602FF80808080808058
:101E90008080800309090601FF80404040204040C7
:101EA000408005030306000248A890FF554E4C4FA2
:101EB00041442046494C414D454E54004C4F41440D
:101EC0002046494C414D454E540046494C414D45F4
:101ED0004E54204348414E47450050455447004129
:101EE000425300504C4100486F6D696E672058594D
:101EF0005A003F0043616E63656C204F626A656300
:101F000074004E4F005945530043616E63656C2069
:101F10004F626A656374203D004D61696E004265E1
:101F200064004E6F7A7A6C650046616E205370656E
:101F3000656400436F6E66696775726174696F6E80
:101F400000526573746F72652044656661756C74C8
:101F500073004C6F61642053657474696E6773001D
:101F600053746F72652053657474696E67730050A3
:101F7000726568656174202420436F6E66004F6649
:101F800066004F6E0052756E6F75742053656E73E8
:101F90006F7200416476616E63656420536574748A
:101FA000696E6773004D61696E004D3730322054A1
:101FB0002564004D36303020423020542564004DD9
:101FC000373032203B2564004D37303120542564B2
:101FD000004368616E67652046696C616D656E746B
:101FE000005072656865617420437573746F6D008D
:101FF000507265686561742024004261636B004D16
:10200000363030423000436F6E74696E7565004F34
:102010006666004F6E0052756E6F75742053656E64
:10202000736F72005075726765206D6F7265005234
:102030004553554D45204F5054494F4E533A00504B
:1020400052494E54205041555345440020204E6F74
:102050007A7A6C653A20005061726B696E672E2E39
:102060002E0000005761697420666F720066696C0B
:10207000616D656E74206368616E676500746F20C2
:102080007374617274005761697420666F720066C0
:10209000696C616D656E7420756E6C6F61640000B3
:1020A0004E6F7A7A6C652068656174696E6700505E
:1020B0006C6561736520776169742E2E2E00005067
:1020C0007265737320627574746F6E00746F20682C
:1020D000656174206E6F7A7A6C650000496E736575
:1020E00072742066696C616D656E7400616E642047
:1020F000707265737320627574746F6E00746F20F4
:10210000636F6E74696E7565005761697420666FE0
:10211000720066696C616D656E74206C6F6164003D
:1021200000507265737320427574746F6E00746F23
:1021300020726573756D65207072696E740000574A
:1021400061697420666F72207072696E7400746FBA
:1021500020726573756D652E2E2E000057616974AF
:1021600020666F720066696C616D656E74207075B3
:1021700072676500003F004261636B0053746F70CB
:10218000003F004E4F00594553004E6F204D65648F
:102190006961005072696E742066726F6D204D65C2
:1021A000646961004368616E6765204D65646961BB
:1021B000004D3231004368616E67652046696C618D
:1021C0006D656E7400436F6E6669677572617469E0
:1021D0006F6E0054656D7065726174757265004D47
:1021E0006F74696F6E00526573756D65205072690A
:1021F0006E740043616E63656C204F626A65637440
:102200000054756E650053746F70205072696E745F
:10221000005061757365205072696E7400496E6676
:102220006F2053637265656E003F00537461727472
:10223000205072696E740043616E63656C00507269
:10224000696E740043616E6E6F7420656E746572A2
:10225000207375626469723A200002202E2E004DB0
:1022600061696E002100486F74656E6420746F6F41
:1022700020636F6C64004261636B0050726F636532
:102280006564004D6F74696F6E0044697361626CC0
:1022900065205374657070657273004D3834004268
:1022A0006564205472616D6D696E67004175746F6D
:1022B00020486F6D6500473238004D61696E0050EF
:1022C00072656865617420242042656400507265FF
:1022D00068656174202420456E640054656D7065E6
:1022E00072617475726500E31EDF1EDA1E436F6F44
:1022F0006C646F776E0050726568656174202400AD
:1023000046616E20537065656400426564004E6FDF
:102310007A7A6C65004D61696E00466C6F77004695
:10232000616E20537065656400426564004E6F7A8B
:102330007A6C65005370656564004D61696E004894
:102340006F6D696E67204661696C6564006F7065CA
:102350006E00545249474745524544003A200066B2
:10236000696C616D656E74007A5F6D696E00795F8E
:102370006D696E00785F6D696E005265706F727482
:10238000696E6720656E6473746F70207374617416
:1023900075730A0020746F6F206C6F6E672065780C
:1023A00074727573696F6E2070726576656E746590
:1023B000640A0020636F6C642065787472757369B9
:1023C0006F6E2070726576656E7465640A00486F82
:1023D0006D6520257325732573204669727374001B
:1023E0000000000000000000000000005761726E55
:1023F000696E673A20486F6D696E672042756D702F
:102400002044697669736F72203C20310A00020211
:10241000050080984300007F43000096430000A021
:10242000400000A04000000040000000010000004B
:102430000100008000555555000000400033333343
:1024400000AAAA2A004992240000002000C7711C9B
:102450000099991900D1451700555515003BB11346
:10246000002449120011111100000010000F0F0F7D
:1024700000E3380E0043790D00CCCC0C00C3300CC7
:1024800000E8A20B0064210B00AAAA0A00703D0A12
:10249000009DD80900427B090092240900DCD30882
:1024A00000888808001042080000000800F0C107FA
:1024B000008787070075500700711C07003EEB0678
:1024C00000A1BC06006990060066660600703E0624
:1024D000006118060017F4050074D105005BB00513
:1024E00000B2900500627205005555050078390567
:1024F00000B81E0500050505004EEC040087D40455
:1025000000A1BD040090A7040049920400C17D040D
:1025100000EE690400C7560400444404005C320421
:10252000000821040041100400000004003FF003F3
:1025300000F8E0030026D20300C3C30300CCB503B8
:10254000003AA803000A9B0300388E0300C08103F1
:10255000009F750300D0690300505E03001D530304
:102560000034480300913D03003333030016290370
:1025700000381F030097150300300C03000303030A
:10258000000BFA020049F10200BAE802005CE00226
:10259000002DD802002DD0020059C80200B0C002A0
:1025A0000031B90200DAB10200AAAA0200A0A30217
:1025B00000BC9C0200FA9502005C8F0200DF8802DA
:1025C0000082820200457C0200277602002770020A
:1025D00000436A02007C640200D05E02003F5902A0
:1025E00000C8530200FFFDFCFAF8F6F4F2F0EEEC3E
:1025F000EAE9E7E5E3E1E0DEDCDAD9D7D5D4D2D009
:10260000CFCDCBCAC8C7C5C3C2C0BFBDBCBAB9B79E
:10261000B6B4B3B2B0AFADACAAA9A8A6A5A4A2A106
:10262000A09E9D9C9A99989795949392908F8E8D49
:102630008B8A8988878684838281807F7E7D7B7A6E
:10264000797877767574737271706F6E6D6C6B6A72
:10265000696867666564636261605F5E5D5C5B5A62
:102660005958585756555453525150504F4E4D4C3F
:102670004B4A4A4948474646454443424241403F07
:102680003E3E3D3C3B3B3A393838373635353433BE
:1026900032323130302F2E2E2D2C2B2B2A29292867
:1026A000272726252524232322212120201F1E1E03
:1026B0001D1C1C1B1B1A1919181817161615151492
:1026C000131312121111100F0F0E0E0D0D0C0C0B17
:1026D0000A0A090908080707060605050404030392
:1026E00002020100000080984300007F4300009632
:1026F000430000000000000000000000005365746B
:1027000074696E67732053746F72656400290A00E0
:102710002062797465733B20637263200053657493
:1027200074696E67732053746F7265642028004566
:102730004550524F4D20496E697469616C697A65E4
:10274000640A0048617264636F646564204465666E
:1027500061756C742053657474696E6773204C6F77
:10276000616465640020286D6D29002046002042C8
:102770000020480020204D3134352053004D617435
:10278000657269616C206865617475702070617232
:10279000616D6574657273004F4646004F4E0020B0
:1027A0003B2053656E736F72200020204D34313210
:1027B00020530046696C616D656E742072756E6F92
:1027C00075742073656E736F720020204D3134393B
:1027D0002043203B20556E69747320696E20436549
:1027E0006C736975730A0054656D706572617475F8
:1027F000726520556E697473002020473231203B8A
:10280000004C696E65617220556E697473004545B0
:1028100050524F4D206461746173697A652065720E
:10282000726F722E0A00290A002062797465733B68
:102830002063726320002073746F72656420736577
:102840007474696E67732072657472696576656405
:10285000202800202863616C63756C6174656429AD
:10286000210A0020213D2000454550524F4D204374
:102870005243206D69736D61746368202D20287345
:10288000746F7265642920002053697A653A2000CC
:10289000496E6465783A2000000096430000964334
:1028A0000000A0410000C8410000A0420000A0427A
:1028B0000000C8430080CF43F4010000F401000091
:1028C00064000000E8030000204D61726C696E3DF9
:1028D000563836290A00454550524F4D20766572CC
:1028E00073696F6E206D69736D617463682028452C
:1028F0004550524F4D3D0024F4D43050C38E20C279
:10290000A24017828B7011127A910D816CD90AA89E
:1029100061E108C7586607615143061E4B5D05C15A
:1029200045A7041A411104093D9803713931034048
:1029300036DB0265339102D4305402802E1D0263CF
:102940002CEE01752AC501B028A001102781018F46
:102950002564012B244B01E0223401AC211F018DA1
:10296000200D01801FFC00841EED00971DDF00B8C4
:102970001CD200E61BC600201BBC00641AB200B2C9
:1029800019A8000A19A0006A189900D117910040EF
:10299000178B00B516840031167E00B31579003A06
:1029A000157300C7146F0058146A00EE1366008890
:1029B00013630025135E00C7125B006C12570015ED
:1029C000125400C111510070114F0021114B00D65B
:1029D0001049008D1047004610440002104200C00C
:1029E0000F4000800F3E00420F3C00060F3B00CB23
:1029F0000E3800930E37005C0E3500270E3400F3BE
:102A00000D3200C10D3100900D3000600D2E0032EE
:102A10000D2D00050D2C00D90C2B00AE0C290085C6
:102A20000C29005C0C2700350C27000E0C2600E852
:102A30000B2400C40B2400A00B23007D0B23005AA1
:102A40000B2100390B2100180B2000F80A1F00D9B8
:102A50000A1E00BB0A1E009D0A1D00800A1D00639D
:102A60000A1C00470A1B002C0A1B00110A1A00F757
:102A7000091A00DD091900C4091900AB09190092EF
:102A80000917007B091800630917004C0916003666
:102A9000091600200916000A091500F5081500E0BE
:102AA000081400CC081400B8081400A408140090FE
:102AB0000813007D0812006B081300580812004626
:102AC0000812003408110023081100120811000137
:102AD000081100F0071000E0071000D0071000C038
:102AE000071000B0070F00A107100091070E008328
:102AF000070F0074070F0065070E0057070E004907
:102B0000070E003B070D002E070E0020070D0013D7
:102B1000070D0006070D00F9060C00ED060D00E09C
:102B2000060C00D4060C00C8060C00BC060C00B055
:102B3000060C00A4060B0099060C008D060B008203
:102B4000060B0077060B006C060B0061060A0057A7
:102B5000060B004C060A0042060A0038060A002E40
:102B6000060A0024060A001A060A001006090007D1
:102B7000060A00FD050900F4050900EB050900E25D
:102B8000050900D9050900D0050900C7050900BEDF
:102B9000050900B5050800AD050800A50509009C5C
:102BA000050800940508008C050800840508007CD1
:102BB000050800740508006C050700650508005D40
:102BC000050700560508004E0507004705070040A9
:102BD00005080038050700310507002A050700230E
:102BE0000507001C050600160507000F050700086D
:102BF00005060002050700FB040600F5040700EEC9
:102C0000040600E8040600E2040700DB040600D521
:102C1000040600CF040600C9040600C3040600BD74
:102C2000040600B7040600B1040500AC040600A6C3
:102C3000040600A00405009B04060095040500900E
:102C40000406008A04050085040500800406007A55
:102C500004050075040500700405006B040500669A
:102C6000040500610405005C0405005704050052DA
:102C70000405004D04050048040500430405003E1A
:102C80000404003A04050035040500300404002C57
:102C900004050027040400230405001E0404001A90
:102CA00004040016040500110404000D04040009C6
:102CB0000405000404040000040400FC030400F8FC
:102CC000030400F4030400F0030400EC030400E830
:102CD000030400E4030400E0030400DC030400D860
:102CE000030400D4030400D0030400CC030400C890
:102CF000030300C503030024F404D9201BC40C5CA7
:102D00000E9804C4095F0265077101F405F900FB20
:102D100004B30048048700C1036900580355000349
:102D2000034500BE023A008402310053022A002902
:102D300002250004022000E4011C00C8011900AFB4
:102D40000117009801140084011300710110006143
:102D500001100051010E0043010D0036010B002B44
:102D6000010B0020010B00150109000C01090003F3
:102D7000010800FB000800F3000800EB000700E476
:102D8000000600DE000600D8000600D2000600CCD7
:102D9000000500C7000500C2000500BD000400B921
:102DA000000400B5000400B1000400AD000400A957
:102DB000000400A5000300A20003009F0004009B84
:102DC00000030098000300950002009300030090A8
:102DD0000003008D0002008B0003008800020086C3
:102DE00000020084000300810002007F0002007DD9
:102DF0000002007B000200790002007700010076EB
:102E00000002007400020072000100710002006FF5
:102E10000002006D0001006C0002006A0001006900
:102E20000002006700010066000100650001006407
:102E30000002006200010061000100600001005F0B
:102E40000002005D0001005C0001005B0001005A0F
:102E50000001005900010058000100570001005610
:102E60000001005500010054000100530000005310
:102E70000001005200010051000100500001004F0C
:102E80000001004E0000004E0001004D0001004C0A
:102E90000001004B0000004B0001004A0001004906
:102EA0000001004800000048000100470001004602
:102EB00000000046000100450000004500010044FC
:102EC00000010043000000430001004200000042F6
:102ED0000001004100000041000100400001003FEE
:102EE0000000003F0001003E0000003E0001003DE8
:102EF0000000003D0001003C0000003C0000003CE0
:102F00000001003B0000003B0001003A0000003AD5
:102F100000010039000000390001003800000038CD
:102F200000000038000100370000003700010036C3
:102F300000000036000000360001003500000035BA
:102F400000000035000100340000003400000034AF
:102F500000010033000000330000003300010032A4
:102F6000000000320000003200010031000000319A
:102F7000000000310001003000000030000000308F
:102F80000001002F0000002F0000002F0000002F84
:102F90000001002E0000002E0000002E0001002D78
:102FA0000000002D0000002D0000002D0001002C6D
:102FB0000000002C0000002C0000002C0001002B61
:102FC0000000002B0000002B0000002B0001002A55
:102FD0000000002A0000002A0000002A0001002949
:102FE000000000290000002900000029000000293D
:102FF0000001002800000028000000280000002830
:103000000000002800010027000000270000002722
:103010000000002700000027000100260000002615
:103020000000002600000026000000260001002508
:1030300000000025000000250000002500000025FC
:1030400000000025000100240000002400000024EE
:1030500000000024000000240001002300000023E1
:1030600000000023000000230000002300000023D4
:1030700000000023000100220000002200000022C6
:1030800000000022000000220000002200010021B8
:1030900000000021000000210000002100000021AC
:1030A000000000210000002100010020000000209D
:1030B0000000002000000020000000200000002090
:1030C00000000020000000200001001F0000001F81
:1030D0000000001F0000001F0000001F0000001F74
:1030E0000000001F0001001E0000001E0000001E66
:1030F0000000001E0000003930000033250000876A
:10310000190000B00F0000DB080000BD04000074CF
:103110000200003F01000020436F756E7420583A92
:1031200000426564004531004500626564002C2062
:1031300073797374656D2073746F7070656421208A
:103140004865617465725F49443A2000486561745E
:10315000696E67204661696C6564004865617469E1
:103160006E67206661696C6564004D3131322053B1
:10317000687574646F776E004572723A204D4158DD
:1031800054454D50004D415854454D50207472697E
:10319000676765726564004572723A204D494E5406
:1031A000454D50004D494E54454D5020747269674D
:1031B0006765726564000A0A0020205A5F4D494E17
:1031C0003A002020595F4D494E3A002020585F4D6B
:1031D000494E3A00202F002042403A0020403A0059
:1031E00020573A007C3C3E5E2B3D3F2F5B5D3B2CE5
:1031F0002A225C0043616E6E6F74206F70656E20D2
:1032000073756264697220004D6564696120496E5E
:103210006974204661696C005344206361726420C4
:103220006F6B0A006F70656E526F6F742066616914
:103230006C65640A00766F6C756D652E696E6974D5
:10324000206661696C65640A004E6F2053442063F8
:103250006172640A000A4D3234004D323320257306
:10326000002E0A006F70656E206661696C65642CC3
:103270002046696C653A200046696C652073656C70
:1032800065637465640A002053697A653A200046D4
:10329000696C65206F70656E65643A2000454E4428
:1032A00020535542524F5554494E450A0022207032
:1032B0006F73002220706172656E743A220053555C
:1032C00042524F5554494E452043414C4C20746165
:1032D000726765743A220053756263616C6C204FAB
:1032E000766572666C6F77004578636565646564C2
:1032F000206D617820535542524F5554494E452018
:1033000064657074683A0057726974696E672074F6
:103310006F2066696C653A200066726573680064A8
:103320006F696E67002066696C653A20004E6F77A2
:1033300020002F6175746F25632E6700026D617226
:103340006C696E66772E6F72670062756766697862
:103350002D322E302E78001FFFFFFFFFFFFF600091
:1033600000000001FF400000000000FF800000009E
:1033700000007F83CF00000C303F87FF80000C30BF
:103380001F867980000C000F8C30C7838C30E78C4F
:1033900030CFC7CC31F38C30DCECEC33B98C30D887
:1033A0006C6C33198C30D06C0C33198C30D86C0C9D
:1033B00033198C30DC6C0E3B198C30CF7C079F1995
:1033C0008C30C77C038F19400000000000026000B1
:1033D00000000000061FFFFFFFFFFFF870012C0137
:1033E00090012701B0012201C0011D01F001180167
:1033F0001002130130020E01600209019002040163
:10340000C002FF000003FA004003F5008003F00053
:10341000D003EB002004E6007004E100E004DC00CF
:103420004005D700C005D2004006CD00D006C80038
:103430008007C3003008BE00F008B900C009B4001E
:10344000B00AAF00B00BAA00D00CA500000EA0007F
:10345000500F9B00C01096005012910000148C0079
:10346000C0158700B0178200B0197D00D01B78000E
:10347000001E730040206E0090226900F02464005A
:1034800040275F0090295A00E02B5500102E500075
:1034900020304B0010324600E033410090353C00B4
:1034A0001037370070383200A0392D00B03A2800AC
:1034B000A03B2300603C1E00103D1900903D14000D
:1034C000103E0F00703E0A00C03E0500003F0000A5
:1034D000403FFBFF803FF6FFC03FF1FF2020506CD4
:1034E000616E6E6572427566666572427974657367
:1034F0003A20002046726565204D656D6F72793AFD
:10350000200020436F6D70696C65643A204D6179CD
:1035100020203120323032320A00204C6173742076
:10352000557064617465643A20323032322D303423
:103530002D3139207C20417574686F723A20536FA9
:103540006D6520647564652066726F6D20466163E9
:1035500065626F6F6B0A004D61726C696E206275F7
:10356000676669782D322E302E780A0020536F66F8
:1035700074776172652052657365740A0020576123
:10358000746368646F672052657365740A00204233
:10359000726F776E206F75742052657365740A00C0
:1035A0002045787465726E616C2052657365740A8B
:1035B00000506F77657255700A0073746172740AF7
:1035C000004732385859004D31303031006F6B00B0
:1035D0006572726F722077726974696E6720746F9A
:1035E0002066696C650A00446F6E652073617669B8
:1035F0006E672066696C652E0A004D323900456E93
:103600006473746F70730025532025632025632035
:10361000256320256300205A3A0020593A0020589B
:103620003A00656E6473746F7073206869743A2031
:103630000000002100240027002A002D0030003364
:103640000001010000040107010A01000022002519
:103650000028002B002E003100340002010000057C
:103660000108010B01000020002300260029002C86
:10367000002F0032000001000003010601090105CE
:10368000050505070508080808020202020A0A08DB
:103690000804040404010101010101010103030301
:1036A0000303030303040707070C0C0C0C0C0C0C9E
:1036B0000C0202020206060606060606060B0B0BA5
:1036C0000B0B0B0B0B0102102020080810204010E0
:1036D00020408002010201080402010102040810D6
:1036E00020408080402010080402018004020180F4
:1036F000402010080402010804020101020408101D
:10370000204080010204081020408000000A0B02C3
:10371000090C0D0E08070304010000000000000062
:103720000000000000000000000000000000000099
:103730000000000000000012111000000000000056
:103740000000000000000000000000000000000079
:1037500000004D6F76652025736D6D004D6F7665A9
:1037600020302E316D6D004D6F766520316D6D000E
:103770004D6F76652031306D6D004D6F766520415F
:10378000786973004D6F766520457874727564654D
:1037900072004D6F7665205A004D6F766520590096
:1037A0004D6F7665205800FFFFFF220A00556E6BB3
:1037B0006E6F776E20636F6D6D616E643A202200CC
:1037C000204500205A0020590020204D3932205831
:1037D0000053746570732070657220756E69740093
:1037E0004572726F722077726974696E6720746FA8
:1037F00020454550524F4D210A00DB0FC93F45BCC3
:10380000DA3F8FB30240FCF0274056946140FE4BF4
:103810009B4084A5D840E0231841346A5641E859BA
:10382000974164DBD5416E271742B4B75542CE1A93
:103830009742C8AED542B5885A43D40684BFA65F26
:10384000A7BF7443E0BF10B11AC01C2C58C0E8F6E3
:1038500097C0B849D6C04E4E17C124D355C1802455
:1038600097C1A0B5D5C1121A17C244AE55C2781778
:1038700097C26CACD5C267885AC320746F6F206C36
:103880006F6E6720657874727573696F6E207072E1
:103890006576656E7465640A0020636F6C642065EC
:1038A0007874727573696F6E2070726576656E7468
:1038B00065640A00544845524D414C2052554E41D2
:1038C00057415900546865726D616C2052756E6184
:1038D0007761790020453A00205A3A0020593A0091
:1038E000583A006F6B0A00526573656E643A2000A7
:1038F000536F766F6C20535630312042756766697E
:10390000782052656164792E005072696E74696E18
:10391000672E2E2E005072696E742050617573658B
:10392000640098009A0011241FBECFEFD1E2DEBFE1
:10393000CDBF00E00CBF84B780931C1614BE0FB639
:10394000F894A8958091600088618093600010923F
:1039500060000FBE13E0A0E0B2E0EEE3F5E402E0A9
:103960000BBF02C007900D92A03CB107D9F726E12A
:10397000A0ECB3E001C01D92AC31B207E1F71CE14D
:10398000C2E9DCE100E006C021970109802FFE01B9
:103990000F942D1FC139D10780E00807A9F70F94B4
:1039A0007C0B0D948E220C9400008F929F92AF920C
:1039B000BF92CF92DF92EF92FF92CF936B017C0187
:1039C00020E030E0A9010F946C1887FD9FC06DEBDB
:1039D00077E386E095E3A70196010F944E1F6B01F4
:1039E0007C0120E030E040E251E40F94D11820E067
:1039F00030E048EC52E40F94D1184B015C0120E018
:103A000030E0A901C701B6010F946C1820E030E046
:103A100040EA50E487FF04C020E030E040EA50EC88
:103A2000C501B4010F944E1F20E030E040E251E4A4
:103A30000F942A200F9492206B017C018BE2F7FEF9
:103A400009C0F094E094D094C094C11CD11CE11C36
:103A5000F11C8DE28093D505C701B60120E137E264
:103A600040E050E00F94111F8AE0882E912CA12C89
:103A7000B12CCA01B901A50194010F94111F605D19
:103A80006093D605C701B60128EE33E040E050E070
:103A90000F94111FCA01B901A50194010F94111FC0
:103AA000605D6093D705C701B60124E630E040E0D1
:103AB00050E00F94111FCA01B901A50194010F94A0
:103AC000111F605D6093D8058EE28093D905C70110
:103AD000B601A50194010F94111FC62FCA01B901A7
:103AE000A50194010F94111F605D6093DA05C05D1C
:103AF000C093DB0585ED95E0CF91FF90EF90DF90CF
:103B0000CF90BF90AF909F908F9008956DEB77E32B
:103B100086E095EB60CF8F929F92AF92BF92CF924B
:103B2000DF92EF92FF92CF936B017C0120E030E0B7
:103B3000A9010F946C1887FDC3C06DEB77E386E095
:103B400095E3A70196010F944E1F6B017C0120E0C5
:103B500030E0A9010F946C1887FFB7C0C701B60108
:103B6000905820E030E040E251E40F94D11820E07A
:103B700030E040E251E40F94D11820E030E040EA18
:103B800050E40F944E1F20E030E040E251E40F94E7
:103B90002A200F9492206B017C0160E280EAC81613
:103BA00086E8D80681E0E806F1048CF0C701B6018A
:103BB00020EA36E841E050E00F94111FCA01B90134
:103BC0002AE030E040E050E00F94111F605D609308
:103BD000D50560E280E1C81687E2D806E104F10469
:103BE0008CF0C701B60120E137E240E050E00F94CD
:103BF000111FCA01B9012AE030E040E050E00F9403
:103C0000111F605D6093D60560E288EEC81683E000
:103C1000D806E104F1048CF0C701B60128EE33E0C8
:103C200040E050E00F94111FCA01B9012AE030E0D2
:103C300040E050E00F94111F605D6093D70560E293
:103C400084E6C816D104E104F1048CF0C701B60182
:103C500024E630E040E050E00F94111FCA01B901A2
:103C60002AE030E040E050E00F94111F605D609367
:103C7000D8058AE0882E912CA12CB12CC701B60161
:103C8000A50194010F94111FC62FCA01B901A50106
:103C900094010F94111F605D6093D9058EE28093AB
:103CA000DA05C05DC093DB0585ED95E0CF91FF900F
:103CB000EF90DF90CF90BF90AF909F908F9008953E
:103CC0006DEB77E386E095EB3CCF20E030E040E21F
:103CD00051E4C701B60149CF8F929F92AF92BF9234
:103CE000CF92DF92EF92FF92CF936B017C0120E0A5
:103CF00030E0A9010F946C1887FD93C06DEB77E35A
:103D000086E095E3A70196010F944E1F6B017C019D
:103D100020E030E040E251E40F94D11820E030E0A0
:103D20004AE754E40F94D1184B015C0120E030E0E5
:103D3000A901C701B6010F946C1820E030E040EAF9
:103D400050E487FF04C020E030E040EA50ECC501B9
:103D5000B4010F944E1F20E030E040E251E40F9494
:103D60002A200F9492206B017C01C114D104E1043C
:103D7000F10409F45BC0F7FE59C0F094E094D094CC
:103D8000C094C11CD11CE11CF11C8DE28093D605AE
:103D9000C701B60128EE33E040E050E00F94111F58
:103DA0008AE0882E912CA12CB12CCA01B901A50161
:103DB00094010F94111F605D6093D7058EE280938C
:103DC000D805C701B60124E630E040E050E00F948A
:103DD000111FCA01B901A50194010F94111F605D63
:103DE0006093D905C701B601A50194010F94111F75
:103DF000C62FCA01B901A50194010F94111F605D7E
:103E00006093DA05C05DC093DB0586ED95E0CF9148
:103E1000FF90EF90DF90CF90BF90AF909F908F90EA
:103E200008956DEB77E386E095EB6CCF80E2AECF43
:103E3000CF93DF93EC01CB01BA010F94721820E00D
:103E400030E040E251E40F942A20688379838A832A
:103E50009B83DF91CF910895CF93DF93EC01CB014A
:103E6000BA010F94721820E030E040E251E40F9460
:103E70002A20688379838A839B83DF91CF91089579
:103E80000F94721820E030E040E251E40F942A20B1
:103E900042CECF93DF93EC01CB01BA010F9472189D
:103EA0002AE037ED43E25DE30F942A200F94972038
:103EB000688379838A839B83DF91CF910895CF9321
:103EC000DF93EC01CB01BA010F9472182AE037EDB1
:103ED00043E25DE30F942A20688379838A839B837E
:103EE000DF91CF910895CF93DF93EC01CB01BA011D
:103EF0000F947218688379838A839B83DF91CF91B3
:103F00000895CF93DF93EC01CB01BA010F9472189F
:103F1000688379838A839B83DF91CF910895CF93C0
:103F2000DF93EC01CB01BA010F94721820E030E06E
:103F300048EC52E40F942A20688379838A839B8318
:103F4000DF91CF910895CF93DF93EC01CB01BA01BC
:103F50000F94721820E030E048EC52E40F942A20CD
:103F6000688379838A839B83DF91CF9108950F942F
:103F7000721820E030E048EC52E40F942A2015CD6E
:103F8000CF93DF93EC01CB01BA010F9472180F9419
:103F9000922079836883DF91CF910895CF93DF9347
:103FA000EC01CB01BA010F94721820E030E04AE72F
:103FB00054E40F942A20688379838A839B83DF915A
:103FC000CF9108950F94721820E030E04AE754E44E
:103FD0000F942A2081CE2CEA35EC47E25EE3609113
:103FE000BF057091C0058091C1059091C2050F94E5
:103FF0002A206093FA077093FB078093FC07909345
:10400000FD0708952CEA35EC47E25EE36091C305B5
:104010007091C4058091C5059091C6050F94D11883
:104020006093F6077093F7078093F8079093F9076A
:104030000895FC0184910895FC0180810895FC019C
:10404000A081B1811C92A281B3818C918F5F8C93EE
:104050000280F381E02D90818CE0989F800D1124E7
:10406000ECE1F4E113AE84AF0895009751F0FC0148
:1040700080E09191992331F0907C9038D1F38F5F5B
:10408000F8CF80E00895119800C09091020187FD5B
:104090009095917090930001119A00C000C0119802
:1040A00000C09091020186FD90959170909300015F
:1040B000119A00C000C0119800C09091020185FDC6
:1040C0009095917090930001119A00C000C01198D2
:1040D00000C09091020184FD909591709093000131
:1040E000119A00C000C0119800C09091020183FD98
:1040F0009095917090930001119A00C000C01198A2
:1041000000C09091020182FD909591709093000102
:10411000119A00C000C0119800C09091020181FD69
:104120009095917090930001119A00C000C0119871
:1041300000C080910201817080930001119A00C03B
:1041400000C0089590E080E00895CF93DF93C09180
:10415000EF07D091F00781E0CE31D105E4F020E007
:1041600030E040E05FE36091EB077091EC078091F5
:10417000ED079091EE070F944E1F0F9492206C1B49
:104180007D0B77FF03C071956195710981E0633004
:1041900071050CF080E0DF91CF910895CF93DF930C
:1041A000DB01F9019C919130C1F0943080F0945082
:1041B0009C938830D1F480819181009771F00197B0
:1041C00091838083480F591FEA01188206C08C35FD
:1041D00039F49C5F9C93943041F4DF91CF91089522
:1041E0008B3339F781E08C93F8CF20813181B9018D
:1041F0006F5F7F4F71836083420F531FEA01888393
:10420000808191818F3591056CF7E7CF0F931F93D4
:1042100081E0009170151091711520917215309107
:10422000731540916C1550916D1560916E157091DC
:104230006F15041715072607370708F480E01F914C
:104240000F91089590E080E0089520911205833049
:1042500021F425FD0CC024FD0CC030E0A90102C0F2
:10426000559547958A95E2F7CA018170089581E0D6
:10427000089580E0089580912E0584FD0BC0809103
:10428000300587FD07C090913105937081E019F4E6
:1042900080E0089581E00895082E000C990BFC0140
:1042A000E158F94CE491EE2391F0F0E0EE0FFF1F9E
:1042B000EB59F94CA591B4912C918B53994CFC017D
:1042C0008491282381E090E021F480E0089580E04B
:1042D00090E00895082E000C990BFC01E158F94C70
:1042E000E491F0E0EE0FFF1FEF5CF94CA591B49163
:1042F0002C918B53994CFC018491822391E009F419
:1043000090E0892F08952FEB280F2A3108F047C03D
:10431000E22FF0E080912E0590912F05A0913005BD
:10432000B091310504C0B695A795979587952A95C4
:10433000D2F780FD02C081700895EC5EFA4FE081F3
:10434000EE2341F180913C0890913D08E80FF92F50
:10435000F11D808190ED980F9A3030F08E3251F43B
:10436000818180538A3098F4F0930605E093050527
:1043700081E008958D3211F08B3249F4818190ED06
:10438000980F9A3088F38E3211F48281EACFF0E0F0
:10439000E0E0EACF1092060510920505E9CF80E033
:1043A0000895B1DF882341F081E020910505309127
:1043B0000605232B09F480E008951092CE0585E0D0
:1043C0008093E9040895ECE4F5E09491981739F0AE
:1043D000319695E0E236F907C1F780E0089581E073
:1043E0000895269A2E9A089580E090E0A0E8B0E41F
:1043F00080937B0E90937C0EA0937D0EB0937E0EE7
:1044000082EE92E00E947BB180E090E0A0EFB1E408
:104410008093730E9093740EA093750EB093760EE6
:104420008093770E9093780EA093790EB0937A0EC6
:10443000E091C805EE0FFF0BEE53FD4F8081918197
:104440008330910569F184309105B1F1029761F4EF
:1044500080E090E0A2E8B3E48093730E9093740E32
:10446000A093750EB093760E8AEC92E00E947BB119
:104470008DEC9CECACE4BEE380937B0E90937C0EC1
:10448000A0937D0EB0937E0E82EE92E00E947BB1EF
:104490008091C8058F5F8430E4F48093C805089547
:1044A00080E090E0A2E8B3E48093730E9093740EE2
:1044B000A093750EB093760E80E090E0AFE5B3E484
:1044C0008093770E9093780EA093790EB0937A0E26
:1044D000CBCF1092C8050895CF93DF9300D01F92E1
:1044E000CDB7DEB70F9497200F94701869837A8345
:1044F0008B839C83CE0101960E94E8BA0F900F90A7
:104500000F900F90DF91CF9108950F9472182AE0C9
:1045100037ED43E25DE30F942A20DECFCF92DF92A6
:10452000EF92FF92CF93DF9300D01F92CDB7DEB70B
:104530006B017C0120E030E0A9010F946C1887FD2D
:104540001BC06DEB77E386E095E3A70196010F941E
:104550004E1F69837A838B839C83CE0101960E94D0
:10456000E8BA0F900F900F900F90DF91CF91FF90CE
:10457000EF90DF90CF9008956DEB77E386E095EBB9
:10458000E4CF0F9472182AE037ED43E25DE30F9415
:104590002A20C4CF0F947218C1CFCF92DF92EF922E
:1045A000FF92CF93DF9300D01F92CDB7DEB76B01A0
:1045B0007C0120E030E0A9010F946C1887FD1BC03E
:1045C0006DEB77E386E095E3A70196010F944E1F0C
:1045D00069837A838B839C83CE0101960E946BBB97
:1045E0000F900F900F900F90DF91CF91FF90EF9071
:1045F000DF90CF9008956DEB77E386E095EBE4CF05
:104600000F94721820E030E040E251E40F942A2029
:10461000C4CFCF92DF92EF92FF926B017C0120E03A
:1046200030E0A9010F946C1887FD26C06DEB77E38D
:1046300086E095E3A70196010F944E1F6B017C0164
:1046400020E030E0A9010F946C1820E030E040E059
:104650005FE387FF04C020E030E040E05FEBC7018C
:10466000B6010F944E1F0F949220CB01FF90EF9054
:10467000DF90CF900C947DBF6DEB77E386E095EBF8
:10468000D9CF0F947218C5CFCF92DF92EF92FF92DD
:10469000CF93DF9300D01F92CDB7DEB70F9472187F
:1046A00020E030E048EC52E40F942A206B017C01BA
:1046B00020E030E0A9010F946C182DEB37E346E0C1
:1046C00055E387FF04C02DEB37E346E055EBC70108
:1046D000B6010F944E1F69837A838B839C83CE012E
:1046E00001960E9443BE0F900F900F900F90DF91A4
:1046F000CF91FF90EF90DF90CF9008950F947218B4
:104700000F949220CB010C94FCBF0C943DA00C9410
:104710003DA00C943DA00C943DA00C94EF9F0C94F4
:10472000EF9F0C94EF9F0C94EF9F2CEA35EC47E23F
:104730005EE36091BF057091C0058091C1059091C5
:10474000C2050F942A206093350670933606809335
:1047500037069093380608952CEA35EC47E25EE37D
:104760006091C3057091C4058091C5059091C605FF
:104770000F94D118609331067093320680933306FC
:1047800090933406089580917702882341F06091D8
:10479000BD057091BE0541E081E00C94D2F2089510
:1047A000CF92DF92EF92FF920F931F93CF9390914E
:1047B0002A02913009F461C0662351F01092EE0490
:1047C0001092EA041092EB041092EC041092ED04A3
:1047D000C82F0E94D3F7C090EA04D090EB04E09079
:1047E000EC04F090ED049B01AC012C193D094E093D
:1047F0005F0969017A01F7FC40C02091EE04C7FD12
:1048000015C04C2F0C2E000C550B4C5F5F4FE22F48
:10481000022E000CFF0B4E175F077CF144EFC42EF5
:10482000DD24D394E12CF12C2C1734F438EEC32E74
:1048300033E0D32EE12CF12CC60ED71EE81EF91E54
:10484000C092EA04D092EB04E092EC04F092ED0402
:10485000022F017010E084E2809FB001819F700DF3
:10486000701B112460597C4F82E390E00E9434CE8B
:104870008091EE048F5F8093EE04CF911F910F9192
:10488000FF90EF90DF90CF900895CF93DF93C0918A
:10489000EF07D091F007209729F16091EB07709115
:1048A000EC078091ED079091EE070F9492206E5FD8
:1048B0007F4F24976C177D07ACF4709314066093B8
:1048C00013060E94D3F7605A75418F4F9F4F609334
:1048D0001506709316068093170690931806DF91BD
:1048E000CF91089510921506109216061092170691
:1048F00010921806F4CFBF92CF92DF92EF92FF9200
:104900000F931F93CF93DF936B01E9014A3009F4B2
:10491000DFC0453109F08AC0DB011296ED91FC91B0
:104920001281C681D7818091020180958270809327
:10493000000100C0000086E290E00197F0F7012F2F
:104940000295007F20E1B22EB10E88EF9CDB00C003
:10495000000086E290E00197F0F7103208F0A5C061
:10496000812F807780688FDB802F8DDB00C0000077
:1049700086E290E00197F0F780E885DB80E083DB5A
:1049800000C0000086E290E00197F0F78AEF7BDB41
:1049900000C0000086E290E00197F0F77E01B0E1F0
:1049A000EB0EF11C8881807F6EDB89918295807F80
:1049B0006ADBCE15DF05B1F700C0000086E290E0AB
:1049C0000197F0F71F5F005F1B11BFCF80910201BD
:1049D000827080930001D6011296ED91FC91808146
:1049E0009281980F92832181921708F0EDC19481F2
:1049F0009F5F94839381890F821710F08FEF820F4E
:104A00008383458150E0440F551F70E060E086814C
:104A100097810F943A2281E0DF91CF911F910F91FE
:104A2000FF90EF90DF90CF90BF900895FB0102813F
:104A30001381423309F4CAC108F4D2C1463409F4DF
:104A4000BFC1473409F4C7C14B3329F789812B8192
:104A5000D80112966C91129713964C91213009F45B
:104A600004C2233009F0E5C138EF380F582F91E028
:104A7000431708F490E041E0531708F040E031E0BC
:104A8000561708F430E0592F542B352319F494238A
:104A900009F4C1CFFA8030E0F901E255FD4FD08032
:104AA00026553D4FF901E080DDC180EE810F806821
:104AB000807FE9DA812F8295807FE5DA00C00000EF
:104AC00086E290E00197F0F780E8DDDA80E857CFE2
:104AD00080910101826080930101809102018270C6
:104AE0008093000180910101816080930101809198
:104AF0000201817080930001099A119A809102014C
:104B0000809582708093000100C0000086E290E0F2
:104B10000197F0F788E790E0CEE9DFE0FE013197FA
:104B2000F1F70197D9F788EFAEDA00C0000086E20E
:104B300090E00197F0F780E2A6DA80E0A4DA00C006
:104B4000000086E290E00197F0F780E09CDA80E8D0
:104B50009ADA00C0000086E290E00197F0F780E06A
:104B600092DA80E190DA00C0000086E290E00197DE
:104B7000F0F7CE010197F1F7CE010197F1F7CE01E1
:104B80000197F1F7CE010197F1F7CE010197F1F707
:104B9000CE010197F1F7CE010197F1F7CE01019710
:104BA000F1F7CE010197F1F7CE010197F1F7CE01B0
:104BB0000197F1F7CE010197F1F7CE010197F1F7D7
:104BC000CE010197F1F72197F1F780E25CDA80E4FA
:104BD0005ADA00C0000086E290E00197F0F780E228
:104BE00052DA80E650DA00C0000086E290E00197D9
:104BF000F0F7D0E0C0E08C2F8077806844DA8D2F0A
:104C000042DA00C0000086E290E00197F0F780E809
:104C10003ADA80E038DA00C0000086E290E00197DE
:104C2000F0F78AEF30DA00C0000086E290E00197EA
:104C3000F0F790E2119800C080910201817080939A
:104C40000001119A00C000C0119800C080910201BB
:104C5000817080930001119A00C000C0119800C0BB
:104C600080910201817080930001119A00C000C000
:104C7000119800C080910201817080930001119A07
:104C800000C000C0119800C0809102018170809323
:104C90000001119A00C000C0119800C0809102016B
:104CA000817080930001119A00C000C0119800C06B
:104CB00080910201817080930001119A00C000C0B0
:104CC000119800C080910201817080930001119AB7
:104CD00000C000C0119800C08091020181708093D3
:104CE0000001119A00C000C0119800C0809102011B
:104CF000817080930001119A00C000C0119800C01B
:104D000080910201817080930001119A00C000C05F
:104D1000119800C080910201817080930001119A66
:104D200000C000C0119800C0809102018170809382
:104D30000001119A00C000C0119800C080910201CA
:104D4000817080930001119A00C000C0119800C0CA
:104D500080910201817080930001119A00C000C00F
:104D6000119800C080910201817080930001119A16
:104D700000C000C000C00000E6E2F0E03197F0F7AC
:104D8000915009F057CF88EF7ED900C0000086E22D
:104D900090E00197F0F7CF5FD05FC03209F02BCFE2
:104DA00080E071D980EC6FD900C0000086E290E00D
:104DB0000197F0F7809102018270809300012BCE61
:104DC000F8018581888327CE80E026CEB901C8010D
:104DD0000E94FEFA20CED80111968C9188831BCEBA
:104DE000443191F0473109F016CE1882D80112965D
:104DF0008C911297898315968C91159781508A838F
:104E000013968C918B8307CED80115964C911597EC
:104E100050E0440F551F70E060E016968D919C9114
:104E20000F943A22F8011282808181508383148288
:104E3000F2CD481708F4EFCD861708F4ECCDFA80D0
:104E4000E12CD12C243070F426CEBE01C8010E9482
:104E5000FEFA898198819D0D98838E0D8983FF0CC0
:104E600009F4D9CDF7FEF6CFF0CF58E0580F382F20
:104E7000FECDEF92FF920F931F93CF93DF93EC0140
:104E80008B017A018A859B858617970731F0888187
:104E900099810E9435FD1B870A87B7018881998116
:104EA0000E9478F32E813F81820F932F911D9F8363
:104EB0008E8390E080E0DF91CF911F910F91FF9062
:104EC000EF9008959F92AF92BF92CF92DF92EF92B0
:104ED000FF920F931F93CF93DF93EC018B01942EDE
:104EE000A52E8A859B858617970731F08881998141
:104EF0000E9435FD1B870A8788859985019649F5AB
:104F0000BC800A818E81080FC880D980D601559651
:104F1000ED91FC91C6011995B80EE92CFA2C10E020
:104F2000F70121917F01211127C08E819F81810F7F
:104F3000911D9F838E8390E080E0DF91CF911F9140
:104F40000F91FF90EF90DF90CF90BF90AF909F9028
:104F500008950E811F81692D7A2D888199810E9483
:104F600078F3800F912F911D2885398528173907EF
:104F700038F681E090E0E1CF4B2D602FC6010E9412
:104F80008DFD080F180FCCCFDF92EF92FF920F9399
:104F90001F93CF93DF93EC01D62E1CAD0BAD7C019C
:104FA00084E0E80EF11CE98DFA8DC7011995412FB7
:104FB000480F2D2D602FC7010E948DFD9BAD890FDD
:104FC0008BAF81E090E0DF91CF911F910F91FF9027
:104FD000EF90DF900895CF9380913805811154C0F0
:104FE00010925714109258141092591410922514BC
:104FF000109224141092271410922614109229143F
:1050000081E08093281482E280932A1410922F1456
:1050100010922E14E3E4F4E121E534E18FEF819363
:105020002E173F07E1F7C1E0C093401420EE3BED9F
:105030003093361420933514C093371410923814DB
:105040001092391490E490933A1410923B142FED7F
:105050003BED309352142093511423E132E030930E
:1050600023142093221497E19093471491E1909395
:10507000481490E190934514809344148093431412
:105080000E943CFBC093380581E080933A058CEE8A
:1050900095E1909389138093881310928B1310924B
:1050A0008A13CF910895BC01990F880B990B0C942A
:1050B00037EE8091050590910605009731F04AE0A2
:1050C00050E070E060E00D948D1660E070E0CB0180
:1050D00008958091050590910605009731F04AE00A
:1050E00050E070E060E00D94601560E070E0CB018E
:1050F0000895CF93DF93EB0154D9882311F0E9DFB2
:10510000EB01CE01DF91CF910895E3DFCB0108954C
:10511000CF93DF93EB0145D9882319F0DF91CF912D
:10512000F4CFCE01DF91CF910895D3DF97FD0AC070
:10513000D0DF6F3F71058105910509F02CF4C9DFBF
:10514000862F089580E008958FEF089580910505DA
:1051500090910605892B39F0E8DF91E0811101C0BB
:1051600090E0892F089591E0FCCFCF93DF93C82F73
:10517000D62F17D9882319F0DF91CF91E7CF8C2F45
:10518000C2D8811101C08D2FDF91CF9108950F9367
:105190001F93CF9380910505909106050097E9F044
:1051A000FC018F01C1912C2F2F7D81F0C53411F0AE
:1051B000C536B9F7F801108270E060E00F940A1468
:1051C000F801C083CF911F910F91089570E060E0C6
:1051D000CF911F910F910D940A1460E070E0CB0104
:1051E000F1CF4F925F926F927F92AF92BF92CF9228
:1051F000DF92EF92FF920F931F93CF93DF9386EA94
:10520000A82E82E0B82E03E71EE0C9EED5E093E8B1
:10521000C92E9EE0D92EF12CF50181915F01C1D8F4
:10522000882339F0B4DF2B013C0180911F0E8823C5
:1052300051F0F80180819181A281B38188839983A3
:10524000AA83BB8312C08F2D00D8882309F464C0C1
:10525000F8012081318142815381C301B2010F9451
:105260004E1F688379838A839B83F3940C5F1F4F5F
:105270002496F4E0CF0ED11C83E0F812CDCF85E464
:1052800090D8882309F452C082DF6B017C0183E04F
:105290000E942521882371F020917F0E3091800E8D
:1052A0004091810E5091820EC701B6010F944E1F9E
:1052B0006B017C01C092F505D092F605E092F705EE
:1052C000F092F80586E46DD88823B9F060DF20E01D
:1052D00030E0A9010F94752118167CF458DF20E006
:1052E00030E040E752E40F942A206093310270933B
:1052F00032028093330290933402DF91CF911F9159
:105300000F91FF90EF90DF90CF90BF90AF907F9084
:105310006F905F904F900895F60120813181428116
:105320005381C301B2010F944D1F9BCF80917F0E1B
:105330009091800EA091810EB091820E8093F50520
:105340009093F605A093F705B093F805BBCFCF93E4
:10535000DF93CDB7DEB720E2488559856F818E8116
:105360000E9437F3DF91CF91089563E972E084E6FC
:1053700090E00E9434CE70E060E08AE090E00E940D
:1053800034CE6AEB72E084E690E00C9434CE811166
:10539000ECCF68E270E080E991E00C9434CE0E949A
:1053A000049DF5CF0E94EEB9F2CF0E948FB8DDCFF9
:1053B000282F109236088091210890912208A09100
:1053C0002308B0912408B7FF08C01092210810925A
:1053D000220810922308109224088091D205882375
:1053E00031F0809121088093160810923108809145
:1053F00010081816FCF4082E000C990B821B91095A
:1054000020911608022E000C330B2817390794F050
:1054100097FF02C090E080E080931608092E000CF0
:10542000AA0BBB0B8093210890932208A09323081A
:10543000B0932408809116086623A9F0909117086C
:10544000891714F48093170820911708022E000C76
:10545000330B2C5F3F4F482F082E000C550B2417A1
:1054600035071CF484508093170808950F931F93F9
:10547000522F20911A1430911B142817390731F13B
:105480001092D40590931B1480931A148B0130E072
:1054900020E00093210810932208209323083093E2
:1054A000240840931708509310088852974421F419
:1054B0001092D3051092BC0582E08093770281E0C0
:1054C000809331081092D1051092C7051F910F915A
:1054D000089520E040E070E060E088E297E4C6CF05
:1054E000CF930E948FB80E94049DC82F882319F083
:1054F00080E00E945E9C8C2F4ADFCF91EACF81EF43
:1055000098E19093A4078093A307E3CF0F931F9391
:10551000CF93DF93CDB7DEB76E970FB6F894DEBFAB
:105520000FBECDBF282F082E000C330B90911D020B
:1055300040911E028F3F39F0F901EE0FFF1FE15E2F
:10554000FD4F908141814F939F933F938F9383EBC6
:1055500097E19F938F938E010F5F1F4F1F930F93C0
:105560000F9405184FE350E0B80185EA97E00F94D7
:105570007422AFDF0FB6F894DEBF0FBECDBF6E96BC
:105580000FB6F894DEBF0FBECDBFDF91CF911F9154
:105590000F9108958FEFBACF80913808B7CFCF938E
:1055A000DF93C091BC05CC23B1F0C150C093BC05C2
:1055B00089E0C89FE0011124CA57DA4F6A817B81D4
:1055C0002F814E818881998151DF88858093D30511
:1055D000DF91CF910895DF91CF917BCF80E090E074
:1055E000A0E8B0E480937B0E90937C0EA0937D0E98
:1055F000B0937E0E82EE92E00E947BB11092D305B2
:10560000CECFE091BC05E63028F581E08E0F809387
:10561000BC054091210850912208609123087091A7
:10562000240820911708909110088091D30539E043
:10563000E39FF0011124EA57FA4FA0911A14B09198
:105640001B14B183A08342835383648375832683B1
:1056500097838087089580931A0820E040E070E0E7
:1056600060E08BE390E302CFCF93DF93CDB7DEB75B
:105670008E81282F082E000C330B909187139217E0
:10568000130609F09CF4809387139E01275F3F4F18
:105690004F81588564E570E082E393E10F943418FC
:1056A000109231131092301310922F13DF91CF917B
:1056B00008950F931F9380932902803208F045C00C
:1056C0009091CD05891724F091E0980F9093CD0526
:1056D00041E050E0082E02C0440F551F0A94E2F743
:1056E000052E000C660B770B0091C9051091CA05B9
:1056F0002091CB053091CC054023512362237323A5
:1057000091E0452B462B472B09F490E090931F0E18
:1057100087FD1EC0282F082E000C330B3F938F935C
:1057200089E298E09F938F9389E398E09F938F930A
:105730001F929ADF8DB79EB707960FB6F8949EBF5B
:105740000FBE8DBF1F910F91089510921F0EE0CFD5
:105750001F910F910C94AAED0F931F93CF93DF939A
:105760008C016F3F19F41092871360E0209187132A
:10577000862F062E000C990B2817190609F024F520
:1057800060938713C8010F94BB17800F911FEC0122
:10579000C01BD10BC535D1053CF00197FC0124910C
:1057A000207C2038D1F3F3CFDD27AE01B80182E3AE
:1057B00093E10F94DC17CE5CDC4E1882109231130B
:1057C0001092301310922F13DF91CF911F910F91F0
:1057D0000895CF9380917E05811109C08DE197E1F5
:1057E0009093BE058093BD0581E080937E0509DF1F
:1057F00020E040E070E060E083EC93E237DEC1E05F
:10580000C093D3050E9460A01092D305C8DEC09358
:10581000D30560E085E199E39FDF89E197E190930B
:10582000A4078093A307CF9108950F931F930E941D
:10583000D3F70091790510917A0520917B0530917D
:105840007C05601B710B820B930B97FD0EC086B11C
:1058500086FB882780F991E08927349B8260079B2B
:1058600002C0329B846080937805809178058170B6
:105870009091780591FD826090917705981749F095
:10588000813009F148F0823079F0833091F08093D3
:1058900077051F910F910895913079F09230B9F703
:1058A0009091760591500CC0992339F09330C1F353
:1058B000EECF9130A9F3923051F7909176059F5F2A
:1058C00090937605E4CF992359F3933001F7F5CF00
:1058D000CF92DF92EF92FF92CF93C82F0E94D3F71F
:1058E0006B017C0124EA30E74DE75FE360912B0216
:1058F00070912C0280912D0290912E020F946C18C1
:1059000087FD18C08AEF90E0A0E0B0E08C0D9D1DEF
:10591000AE1DBF1D8093660590936705A093680533
:10592000B0936905C0931B02CF91FF90EF90DF9079
:10593000CF90089580E090E0DC01E8CF4CDB3E980A
:10594000469A3C98449A3A98429A0F98179A6DDF73
:10595000109276050C94AAEDCF92DF92EF92FF920F
:105960000F931F930E94D3F700913C0510913D05C2
:1059700020913E0530913F056B017C01C01AD10A90
:10598000E20AF30A9701860137FD11C020913B0519
:10599000209520933B056A547C4F8F4F9F4F609317
:1059A0003C0570933D0580933E0590933F0581E053
:1059B00090913B05911101C080E01F910F91FF90E4
:1059C000EF90DF90CF900895FC0180E0309749F090
:1059D0009491992331F0907C903809F08F5F319643
:1059E000F7CF0895AF92BF92CF92DF92EF92FF92DE
:1059F0000F931F93CF93DF93EC015B018A01FB01AF
:105A0000199587FD16C0C82ED12CF12CE12C2196BA
:105A1000F801C082D182E282F382CE01DF91CF9180
:105A20001F910F91FF90EF90DF90CF90BF90AF90BC
:105A30000895982F907E903CA9F48F7190E0B0E08B
:105A4000A0E06C017D0156E0CC0CDD1CEE1CFF1CBF
:105A50005A95D1F7CE010196F50119958F73C82A91
:105A60002296D6CF982F907F903E11F58F7090E0C0
:105A7000B0E0A0E06C017D0136E0CC0CDD1CEE1C3A
:105A8000FF1C3A95D1F7CE010196F50119958F7358
:105A9000C82A46E0CC0CDD1CEE1CFF1C4A95D1F751
:105AA000CE010296F50119958F73C82A2396B0CFBF
:105AB000982F987F903F79F5877090E0B0E0A0E054
:105AC0006C017D0186E0CC0CDD1CEE1CFF1C8A9570
:105AD000D1F7CE010196F50119958F73C82A96E08A
